{
  "transactions": [
    {
      "hash": "0xaa97909d9c30a0fd818a964282980f2b9bb19155e8d744614910b2eda488df30",
      "transactionType": "CALL",
      "contractName": null,
      "contractAddress": "0x2104d31ccb7acedc572bda19367a3aaf52e2ff5e",
      "function": "setEnforcedOptions((uint32,uint16,bytes)[])",
      "arguments": [
        "[(40325, 1, 0x00030100110100000000000000000000000000002710), (40325, 2, 0x00030100110100000000000000000000000000002710)]"
      ],
      "transaction": {
        "from": "0x65e467bb02984c535a79d28f6538318f46ff9a5b",
        "to": "0x2104d31ccb7acedc572bda19367a3aaf52e2ff5e",
        "gas": "0x104bb",
        "value": "0x0",
        "input": "0xb98bd07000000000000000000000000000000000000000000000000000000000000000200000000000000000000000000000000000000000000000000000000000000002000000000000000000000000000000000000000000000000000000000000004000000000000000000000000000000000000000000000000000000000000000e00000000000000000000000000000000000000000000000000000000000009d8500000000000000000000000000000000000000000000000000000000000000010000000000000000000000000000000000000000000000000000000000000060000000000000000000000000000000000000000000000000000000000000001600030100110100000000000000000000000000002710000000000000000000000000000000000000000000000000000000000000000000000000000000009d850000000000000000000000000000000000000000000000000000000000000002000000000000000000000000000000000000000000000000000000000000006000000000000000000000000000000000000000000000000000000000000000160003010011010000000000000000000000000000271000000000000000000000",
        "nonce": "0x38",
        "chainId": "0x61"
      },
      "additionalContracts": [],
      "isFixedGasLimit": false
    }
  ],
  "receipts": [
    {
      "status": "0x1",
      "cumulativeGasUsed": "0xbcc4",
      "logs": [
        {
          "address": "0x2104d31ccb7acedc572bda19367a3aaf52e2ff5e",
          "topics": [
            "0xbe4864a8e820971c0247f5992e2da559595f7bf076a21cb5928d443d2a13b674"
          ],
          "data": "0x00000000000000000000000000000000000000000000000000000000000000200000000000000000000000000000000000000000000000000000000000000002000000000000000000000000000000000000000000000000000000000000004000000000000000000000000000000000000000000000000000000000000000e00000000000000000000000000000000000000000000000000000000000009d8500000000000000000000000000000000000000000000000000000000000000010000000000000000000000000000000000000000000000000000000000000060000000000000000000000000000000000000000000000000000000000000001600030100110100000000000000000000000000002710000000000000000000000000000000000000000000000000000000000000000000000000000000009d850000000000000000000000000000000000000000000000000000000000000002000000000000000000000000000000000000000000000000000000000000006000000000000000000000000000000000000000000000000000000000000000160003010011010000000000000000000000000000271000000000000000000000",
          "blockHash": "0x18944ce0083b3169095caeeba56ce16f70b5659e95f38f13ee08fbde6c7e4544",
          "blockNumber": "0x2e02eef",
          "transactionHash": "0xaa97909d9c30a0fd818a964282980f2b9bb19155e8d744614910b2eda488df30",
          "transactionIndex": "0x0",
          "logIndex": "0x0",
          "removed": false
        }
      ],
      "logsBloom": "0x00000000000000000000000000000000000000000000000000000000000000000000000000000000000000000000000000000000000000000000400000000000000000000000000000000000000004000000000000000000000000000000000000000000000000000000000000000000000000000000000000000000000000000000000000000000000000000000000000000000000000000000000000080000000000000100000000000000000000000000000000000000000002000000000000000000000000000000000002000000000000000000000000000000000000000000000000000000000000000000000000000000000000000000000000000000",
      "type": "0x0",
      "transactionHash": "0xaa97909d9c30a0fd818a964282980f2b9bb19155e8d744614910b2eda488df30",
      "transactionIndex": "0x0",
      "blockHash": "0x18944ce0083b3169095caeeba56ce16f70b5659e95f38f13ee08fbde6c7e4544",
      "blockNumber": "0x2e02eef",
      "gasUsed": "0xbcc4",
      "effectiveGasPrice": "0x12a05f200",
      "from": "0x65e467bb02984c535a79d28f6538318f46ff9a5b",
      "to": "0x2104d31ccb7acedc572bda19367a3aaf52e2ff5e",
      "contractAddress": null
    }
  ],
  "libraries": [],
  "pending": [],
  "returns": {},
  "timestamp": 1739461386,
  "chain": 97,
  "commit": "9be9ecd7"
}