{
  "transactions": [
    {
      "hash": "0x5dca00655080a9f9e59e49c7cceaf141137642c00deaa8eaf480cbc00cc45257",
      "transactionType": "CALL",
      "contractName": null,
      "contractAddress": "0x2104d31ccb7acedc572bda19367a3aaf52e2ff5e",
      "function": "setEnforcedOptions((uint32,uint16,bytes)[])",
      "arguments": [
        "[(40325, 1, 0x00030100110100000000000000000000000000001388), (40325, 2, 0x00030100110100000000000000000000000000001388)]"
      ],
      "transaction": {
        "from": "0x65e467bb02984c535a79d28f6538318f46ff9a5b",
        "to": "0x2104d31ccb7acedc572bda19367a3aaf52e2ff5e",
        "gas": "0x104bb",
        "value": "0x0",
        "input": "0xb98bd07000000000000000000000000000000000000000000000000000000000000000200000000000000000000000000000000000000000000000000000000000000002000000000000000000000000000000000000000000000000000000000000004000000000000000000000000000000000000000000000000000000000000000e00000000000000000000000000000000000000000000000000000000000009d8500000000000000000000000000000000000000000000000000000000000000010000000000000000000000000000000000000000000000000000000000000060000000000000000000000000000000000000000000000000000000000000001600030100110100000000000000000000000000001388000000000000000000000000000000000000000000000000000000000000000000000000000000009d850000000000000000000000000000000000000000000000000000000000000002000000000000000000000000000000000000000000000000000000000000006000000000000000000000000000000000000000000000000000000000000000160003010011010000000000000000000000000000138800000000000000000000",
        "nonce": "0x3d",
        "chainId": "0x61"
      },
      "additionalContracts": [],
      "isFixedGasLimit": false
    }
  ],
  "receipts": [
    {
      "status": "0x1",
      "cumulativeGasUsed": "0x14b498",
      "logs": [
        {
          "address": "0x2104d31ccb7acedc572bda19367a3aaf52e2ff5e",
          "topics": [
            "0xbe4864a8e820971c0247f5992e2da559595f7bf076a21cb5928d443d2a13b674"
          ],
          "data": "0x00000000000000000000000000000000000000000000000000000000000000200000000000000000000000000000000000000000000000000000000000000002000000000000000000000000000000000000000000000000000000000000004000000000000000000000000000000000000000000000000000000000000000e00000000000000000000000000000000000000000000000000000000000009d8500000000000000000000000000000000000000000000000000000000000000010000000000000000000000000000000000000000000000000000000000000060000000000000000000000000000000000000000000000000000000000000001600030100110100000000000000000000000000001388000000000000000000000000000000000000000000000000000000000000000000000000000000009d850000000000000000000000000000000000000000000000000000000000000002000000000000000000000000000000000000000000000000000000000000006000000000000000000000000000000000000000000000000000000000000000160003010011010000000000000000000000000000138800000000000000000000",
          "blockHash": "0xce493e6f23bad8fbd3c08386ed3af031591325ffb31610e64e83e189b9298a7e",
          "blockNumber": "0x2e07d19",
          "transactionHash": "0x5dca00655080a9f9e59e49c7cceaf141137642c00deaa8eaf480cbc00cc45257",
          "transactionIndex": "0xf",
          "logIndex": "0x1e",
          "removed": false
        }
      ],
      "logsBloom": "0x00000000000000000000000000000000000000000000000000000000000000000000000000000000000000000000000000000000000000000000400000000000000000000000000000000000000004000000000000000000000000000000000000000000000000000000000000000000000000000000000000000000000000000000000000000000000000000000000000000000000000000000000000080000000000000100000000000000000000000000000000000000000002000000000000000000000000000000000002000000000000000000000000000000000000000000000000000000000000000000000000000000000000000000000000000000",
      "type": "0x0",
      "transactionHash": "0x5dca00655080a9f9e59e49c7cceaf141137642c00deaa8eaf480cbc00cc45257",
      "transactionIndex": "0xf",
      "blockHash": "0xce493e6f23bad8fbd3c08386ed3af031591325ffb31610e64e83e189b9298a7e",
      "blockNumber": "0x2e07d19",
      "gasUsed": "0xbcc4",
      "effectiveGasPrice": "0x174876e800",
      "from": "0x65e467bb02984c535a79d28f6538318f46ff9a5b",
      "to": "0x2104d31ccb7acedc572bda19367a3aaf52e2ff5e",
      "contractAddress": null
    }
  ],
  "libraries": [],
  "pending": [],
  "returns": {},
  "timestamp": 1739521416,
  "chain": 97,
  "commit": "9be9ecd7"
}