{
  "transactions": [
    {
      "hash": "0xff9aa316518fc2e4ee91e16408c792d1dee476d862262e230ee509b3f3d5bfe2",
      "transactionType": "CALL",
      "contractName": null,
      "contractAddress": "0x590f81164c28fc52135c1d015d56312edb919812",
      "function": "send((uint32,bytes32,uint256,uint256,bytes,bytes,bytes),(uint256,uint256),address)",
      "arguments": [
        "(40362, 0x000000000000000000000000acc732e49f38002af5f29e9f042494e535207350, 10000000000, 0, 0x00030100130300000000000000000000000000000000c350, 0xa3824bffc05178b1ed611117e5b900adcb189b94, 0x)",
        "(356145284531306, 0)",
        "0xa3824BFfc05178b1eD611117e5b900adCb189b94"
      ],
      "transaction": {
        "from": "0xa3824bffc05178b1ed611117e5b900adcb189b94",
        "to": "0x590f81164c28fc52135c1d015d56312edb919812",
        "gas": "0x4ac48",
        "value": "0x143e9892c446a",
        "input": "0xc7c7f5b30000000000000000000000000000000000000000000000000000000000000080000000000000000000000000000000000000000000000000000143e9892c446a0000000000000000000000000000000000000000000000000000000000000000000000000000000000000000a3824bffc05178b1ed611117e5b900adcb189b940000000000000000000000000000000000000000000000000000000000009daa000000000000000000000000acc732e49f38002af5f29e9f042494e53520735000000000000000000000000000000000000000000000000000000002540be400000000000000000000000000000000000000000000000000000000000000000000000000000000000000000000000000000000000000000000000000000000e000000000000000000000000000000000000000000000000000000000000001200000000000000000000000000000000000000000000000000000000000000160000000000000000000000000000000000000000000000000000000000000001800030100130300000000000000000000000000000000c35000000000000000000000000000000000000000000000000000000000000000000000000000000014a3824bffc05178b1ed611117e5b900adcb189b940000000000000000000000000000000000000000000000000000000000000000000000000000000000000000",
        "nonce": "0xb",
        "chainId": "0x61"
      },
      "additionalContracts": [],
      "isFixedGasLimit": false
    }
  ],
  "receipts": [
    {
      "status": "0x1",
      "cumulativeGasUsed": "0x36217",
      "logs": [
        {
          "address": "0x590f81164c28fc52135c1d015d56312edb919812",
          "topics": [
            "0xddf252ad1be2c89b69c2b068fc378daa952ba7f163c4a11628f55a4df523b3ef",
            "0x000000000000000000000000a3824bffc05178b1ed611117e5b900adcb189b94",
            "0x0000000000000000000000000000000000000000000000000000000000000000"
          ],
          "data": "0x0000000000000000000000000000000000000000000000000000000000000000",
          "blockHash": "0x01f88314e1b30993bbff03b80a8c320e38b5a221b562cbf6a16f5bd9ff404393",
          "blockNumber": "0x2ed5921",
          "transactionHash": "0xff9aa316518fc2e4ee91e16408c792d1dee476d862262e230ee509b3f3d5bfe2",
          "transactionIndex": "0x0",
          "logIndex": "0x0",
          "removed": false
        },
        {
          "address": "0x55f16c442907e86d764afdc2a07c2de3bdac8bb7",
          "topics": [
            "0x61ed099e74a97a1d7f8bb0952a88ca8b7b8ebd00c126ea04671f92a81213318a"
          ],
          "data": "0x00000000000000000000000031894b190a8babd9a067ce59fde0bfcfd2b184700000000000000000000000000000000000000000000000000001347c39bec50c",
          "blockHash": "0x01f88314e1b30993bbff03b80a8c320e38b5a221b562cbf6a16f5bd9ff404393",
          "blockNumber": "0x2ed5921",
          "transactionHash": "0xff9aa316518fc2e4ee91e16408c792d1dee476d862262e230ee509b3f3d5bfe2",
          "transactionIndex": "0x0",
          "logIndex": "0x1",
          "removed": false
        },
        {
          "address": "0x55f16c442907e86d764afdc2a07c2de3bdac8bb7",
          "topics": [
            "0x07ea52d82345d6e838192107d8fd7123d9c2ec8e916cd0aad13fd2b60db24644"
          ],
          "data": "0x000000000000000000000000000000000000000000000000000000000000006000000000000000000000000000000000000000000000000000000000000000a000000000000000000000000000000000000000000000000000000000000000c000000000000000000000000000000000000000000000000000000000000000010000000000000000000000000ee552262f7b562efced6dd4a7e2878ab897d4050000000000000000000000000000000000000000000000000000000000000000000000000000000000000000000000000000000000000000000000000000000100000000000000000000000000000000000000000000000000000f6d4f6d7f5e",
          "blockHash": "0x01f88314e1b30993bbff03b80a8c320e38b5a221b562cbf6a16f5bd9ff404393",
          "blockNumber": "0x2ed5921",
          "transactionHash": "0xff9aa316518fc2e4ee91e16408c792d1dee476d862262e230ee509b3f3d5bfe2",
          "transactionIndex": "0x0",
          "logIndex": "0x2",
          "removed": false
        },
        {
          "address": "0x6edce65403992e310a62460808c4b910d972f10f",
          "topics": [
            "0x1ab700d4ced0c005b164c0f789fd09fcbb0156d4c2041b8a3bfbcd961cd1567f"
          ],
          "data": "0x0000000000000000000000000000000000000000000000000000000000000060000000000000000000000000000000000000000000000000000000000000016000000000000000000000000055f16c442907e86d764afdc2a07c2de3bdac8bb700000000000000000000000000000000000000000000000000000000000000cd01000000000000000400009ca6000000000000000000000000590f81164c28fc52135c1d015d56312edb91981200009daa00000000000000000000000056b2b6d7f1b95df6c74f1a3fa9a5366b2af6c2c929b417a8eb45675cae3d81ede74bae4451a87a016196192450ae25ef8fd2c59b000000000000000000000000acc732e49f38002af5f29e9f042494e5352073500000000000000000000000000000000000000000a3824bffc05178b1ed611117e5b900adcb189b94a3824bffc05178b1ed611117e5b900adcb189b9400000000000000000000000000000000000000000000000000000000000000000000000000000000000000000000000000002c000301001101000000000000000000000000000138800100130300000000000000000000000000000000c3500000000000000000000000000000000000000000",
          "blockHash": "0x01f88314e1b30993bbff03b80a8c320e38b5a221b562cbf6a16f5bd9ff404393",
          "blockNumber": "0x2ed5921",
          "transactionHash": "0xff9aa316518fc2e4ee91e16408c792d1dee476d862262e230ee509b3f3d5bfe2",
          "transactionIndex": "0x0",
          "logIndex": "0x3",
          "removed": false
        },
        {
          "address": "0x590f81164c28fc52135c1d015d56312edb919812",
          "topics": [
            "0x85496b760a4b7f8d66384b9df21b381f5d1b1e79f229a47aaf4c232edc2fe59a",
            "0x29b417a8eb45675cae3d81ede74bae4451a87a016196192450ae25ef8fd2c59b",
            "0x000000000000000000000000a3824bffc05178b1ed611117e5b900adcb189b94"
          ],
          "data": "0x0000000000000000000000000000000000000000000000000000000000009daa00000000000000000000000000000000000000000000000000000000000000000000000000000000000000000000000000000000000000000000000000000000",
          "blockHash": "0x01f88314e1b30993bbff03b80a8c320e38b5a221b562cbf6a16f5bd9ff404393",
          "blockNumber": "0x2ed5921",
          "transactionHash": "0xff9aa316518fc2e4ee91e16408c792d1dee476d862262e230ee509b3f3d5bfe2",
          "transactionIndex": "0x0",
          "logIndex": "0x4",
          "removed": false
        }
      ],
      "logsBloom": "0x00000004000080000000000000000000000000000000000000400000040000000000000000000000200000200000000000000000000000000000000004000000000002000000000000000008000000000000000000000000000020000000000000000000020000008200000000000800000000000000000000000010000004000000000000000020000000080000000000000000000000000000000000000000000000008000000000100000000000000000000000400000000448000000000000000002000000000000000080000000000000000000000000000040100020000000040000000000000000000000002000000000008080000000000000000000",
      "type": "0x0",
      "transactionHash": "0xff9aa316518fc2e4ee91e16408c792d1dee476d862262e230ee509b3f3d5bfe2",
      "transactionIndex": "0x0",
      "blockHash": "0x01f88314e1b30993bbff03b80a8c320e38b5a221b562cbf6a16f5bd9ff404393",
      "blockNumber": "0x2ed5921",
      "gasUsed": "0x36217",
      "effectiveGasPrice": "0xb2d05e00",
      "from": "0xa3824bffc05178b1ed611117e5b900adcb189b94",
      "to": "0x590f81164c28fc52135c1d015d56312edb919812",
      "contractAddress": null
    }
  ],
  "libraries": [],
  "pending": [],
  "returns": {},
  "timestamp": 1742050992,
  "chain": 97,
  "commit": "218ac8823"
}
