{
  "transactions": [
    {
      "hash": "0xa83aeae3cb86a9bb5744eaffd17d9396427056fb905af05d5bfd3294a7404f3a",
      "transactionType": "CALL",
      "contractName": null,
      "contractAddress": "0x590f81164c28fc52135c1d015d56312edb919812",
      "function": "send((uint32,bytes32,uint256,uint256,bytes,bytes,bytes),(uint256,uint256),address)",
      "arguments": [
        "(40362, 0x000000000000000000000000f9d3b9bacd91df6f273979c42c70e262ed532918, 10000000000000000000, 9000000000000000000, 0x00030100230300000000000000000000000000000000c3500000000000000000000000e8d4a51000, 0xa3824bffc05178b1ed611117e5b900adcb189b94, 0x)",
        "(356145717621406, 0)",
        "0xa3824BFfc05178b1eD611117e5b900adCb189b94"
      ],
      "transaction": {
        "from": "0xa3824bffc05178b1ed611117e5b900adcb189b94",
        "to": "0x590f81164c28fc52135c1d015d56312edb919812",
        "gas": "0x4cf6a",
        "value": "0x143e9a2fcb29e",
        "input": "0xc7c7f5b30000000000000000000000000000000000000000000000000000000000000080000000000000000000000000000000000000000000000000000143e9a2fcb29e0000000000000000000000000000000000000000000000000000000000000000000000000000000000000000a3824bffc05178b1ed611117e5b900adcb189b940000000000000000000000000000000000000000000000000000000000009daa000000000000000000000000f9d3b9bacd91df6f273979c42c70e262ed5329180000000000000000000000000000000000000000000000008ac7230489e800000000000000000000000000000000000000000000000000007ce66c50e284000000000000000000000000000000000000000000000000000000000000000000e000000000000000000000000000000000000000000000000000000000000001400000000000000000000000000000000000000000000000000000000000000180000000000000000000000000000000000000000000000000000000000000002800030100230300000000000000000000000000000000c3500000000000000000000000e8d4a510000000000000000000000000000000000000000000000000000000000000000000000000000000000000000000000000000000000000000014a3824bffc05178b1ed611117e5b900adcb189b940000000000000000000000000000000000000000000000000000000000000000000000000000000000000000",
        "nonce": "0x15",
        "chainId": "0x61"
      },
      "additionalContracts": [],
      "isFixedGasLimit": false
    }
  ],
  "receipts": [
    {
      "status": "0x1",
      "cumulativeGasUsed": "0x50c74",
      "logs": [
        {
          "address": "0x590f81164c28fc52135c1d015d56312edb919812",
          "topics": [
            "0xddf252ad1be2c89b69c2b068fc378daa952ba7f163c4a11628f55a4df523b3ef",
            "0x000000000000000000000000a3824bffc05178b1ed611117e5b900adcb189b94",
            "0x0000000000000000000000000000000000000000000000000000000000000000"
          ],
          "data": "0x0000000000000000000000000000000000000000000000008ac7230489e80000",
          "blockHash": "0x72061f47026e6cb5d2919477dc33baf6e49e0e6f5f39a41fbfa16f4f1101681f",
          "blockNumber": "0x2ee5c76",
          "transactionHash": "0xa83aeae3cb86a9bb5744eaffd17d9396427056fb905af05d5bfd3294a7404f3a",
          "transactionIndex": "0x1",
          "logIndex": "0x3",
          "removed": false
        },
        {
          "address": "0x55f16c442907e86d764afdc2a07c2de3bdac8bb7",
          "topics": [
            "0x61ed099e74a97a1d7f8bb0952a88ca8b7b8ebd00c126ea04671f92a81213318a"
          ],
          "data": "0x00000000000000000000000031894b190a8babd9a067ce59fde0bfcfd2b184700000000000000000000000000000000000000000000000000001347c538f3340",
          "blockHash": "0x72061f47026e6cb5d2919477dc33baf6e49e0e6f5f39a41fbfa16f4f1101681f",
          "blockNumber": "0x2ee5c76",
          "transactionHash": "0xa83aeae3cb86a9bb5744eaffd17d9396427056fb905af05d5bfd3294a7404f3a",
          "transactionIndex": "0x1",
          "logIndex": "0x4",
          "removed": false
        },
        {
          "address": "0x55f16c442907e86d764afdc2a07c2de3bdac8bb7",
          "topics": [
            "0x07ea52d82345d6e838192107d8fd7123d9c2ec8e916cd0aad13fd2b60db24644"
          ],
          "data": "0x000000000000000000000000000000000000000000000000000000000000006000000000000000000000000000000000000000000000000000000000000000a000000000000000000000000000000000000000000000000000000000000000c000000000000000000000000000000000000000000000000000000000000000010000000000000000000000000ee552262f7b562efced6dd4a7e2878ab897d4050000000000000000000000000000000000000000000000000000000000000000000000000000000000000000000000000000000000000000000000000000000100000000000000000000000000000000000000000000000000000f6d4f6d7f5e",
          "blockHash": "0x72061f47026e6cb5d2919477dc33baf6e49e0e6f5f39a41fbfa16f4f1101681f",
          "blockNumber": "0x2ee5c76",
          "transactionHash": "0xa83aeae3cb86a9bb5744eaffd17d9396427056fb905af05d5bfd3294a7404f3a",
          "transactionIndex": "0x1",
          "logIndex": "0x5",
          "removed": false
        },
        {
          "address": "0x6edce65403992e310a62460808c4b910d972f10f",
          "topics": [
            "0x1ab700d4ced0c005b164c0f789fd09fcbb0156d4c2041b8a3bfbcd961cd1567f"
          ],
          "data": "0x0000000000000000000000000000000000000000000000000000000000000060000000000000000000000000000000000000000000000000000000000000016000000000000000000000000055f16c442907e86d764afdc2a07c2de3bdac8bb700000000000000000000000000000000000000000000000000000000000000cd01000000000000000e00009ca6000000000000000000000000590f81164c28fc52135c1d015d56312edb91981200009daa00000000000000000000000056b2b6d7f1b95df6c74f1a3fa9a5366b2af6c2c99df296dd49ff3f7ad8fe3f3471b9d1dd2e3c96ca8c00d2c6ef0084032cd9b250000000000000000000000000f9d3b9bacd91df6f273979c42c70e262ed5329180000000000989680000000000000000000000000a3824bffc05178b1ed611117e5b900adcb189b94a3824bffc05178b1ed611117e5b900adcb189b9400000000000000000000000000000000000000000000000000000000000000000000000000000000000000000000000000003c000301001101000000000000000000000000000138800100230300000000000000000000000000000000c3500000000000000000000000e8d4a5100000000000",
          "blockHash": "0x72061f47026e6cb5d2919477dc33baf6e49e0e6f5f39a41fbfa16f4f1101681f",
          "blockNumber": "0x2ee5c76",
          "transactionHash": "0xa83aeae3cb86a9bb5744eaffd17d9396427056fb905af05d5bfd3294a7404f3a",
          "transactionIndex": "0x1",
          "logIndex": "0x6",
          "removed": false
        },
        {
          "address": "0x590f81164c28fc52135c1d015d56312edb919812",
          "topics": [
            "0x85496b760a4b7f8d66384b9df21b381f5d1b1e79f229a47aaf4c232edc2fe59a",
            "0x9df296dd49ff3f7ad8fe3f3471b9d1dd2e3c96ca8c00d2c6ef0084032cd9b250",
            "0x000000000000000000000000a3824bffc05178b1ed611117e5b900adcb189b94"
          ],
          "data": "0x0000000000000000000000000000000000000000000000000000000000009daa0000000000000000000000000000000000000000000000008ac7230489e800000000000000000000000000000000000000000000000000008ac7230489e80000",
          "blockHash": "0x72061f47026e6cb5d2919477dc33baf6e49e0e6f5f39a41fbfa16f4f1101681f",
          "blockNumber": "0x2ee5c76",
          "transactionHash": "0xa83aeae3cb86a9bb5744eaffd17d9396427056fb905af05d5bfd3294a7404f3a",
          "transactionIndex": "0x1",
          "logIndex": "0x7",
          "removed": false
        }
      ],
      "logsBloom": "0x000000040000000000000000000000000000000000000000000000000400000000000000000000002000000000000000000000000000000000000000040000000000020000000000000000080000000000000000000000000000200000000000000000000200000082000000000008000000000000000000000000100000040000000000000000200000000800000000000000000000000000000000000000000000000080000000001000000000000000000000004000000005480000000000000000020000000000000000a0000000000000000000010000000040100020000000040000000000000000000000002000000000008080000000000000000000",
      "type": "0x0",
      "transactionHash": "0xa83aeae3cb86a9bb5744eaffd17d9396427056fb905af05d5bfd3294a7404f3a",
      "transactionIndex": "0x1",
      "blockHash": "0x72061f47026e6cb5d2919477dc33baf6e49e0e6f5f39a41fbfa16f4f1101681f",
      "blockNumber": "0x2ee5c76",
      "gasUsed": "0x37b86",
      "effectiveGasPrice": "0x2540be400",
      "from": "0xa3824bffc05178b1ed611117e5b900adcb189b94",
      "to": "0x590f81164c28fc52135c1d015d56312edb919812",
      "contractAddress": null
    }
  ],
  "libraries": [],
  "pending": [],
  "returns": {},
  "timestamp": 1742250291,
  "chain": 97,
  "commit": "218ac8823"
}
