{
  "transactions": [
    {
      "hash": "0xf413c2ca467d57eb1f6c05b5bbfcb586bee939b2ad133c3a708adb6fe25a903e",
      "transactionType": "CALL",
      "contractName": null,
      "contractAddress": "0x590f81164c28fc52135c1d015d56312edb919812",
      "function": "send((uint32,bytes32,uint256,uint256,bytes,bytes,bytes),(uint256,uint256),address)",
      "arguments": [
        "(40362, 0x000000000000000000000000a1f743b67979554adc87d4eb2596d2c99bd74dcc, 1000000000000000000, 900000000000000000, 0x00030100230300000000000000000000000000000000c3500000000000000000000000e8d4a51000, 0xa3824bffc05178b1ed611117e5b900adcb189b94, 0x)",
        "(356145717621406, 0)",
        "0xa3824BFfc05178b1eD611117e5b900adCb189b94"
      ],
      "transaction": {
        "from": "0xa3824bffc05178b1ed611117e5b900adcb189b94",
        "to": "0x590f81164c28fc52135c1d015d56312edb919812",
        "gas": "0x4cf6a",
        "value": "0x143e9a2fcb29e",
        "input": "0xc7c7f5b30000000000000000000000000000000000000000000000000000000000000080000000000000000000000000000000000000000000000000000143e9a2fcb29e0000000000000000000000000000000000000000000000000000000000000000000000000000000000000000a3824bffc05178b1ed611117e5b900adcb189b940000000000000000000000000000000000000000000000000000000000009daa000000000000000000000000a1f743b67979554adc87d4eb2596d2c99bd74dcc0000000000000000000000000000000000000000000000000de0b6b3a76400000000000000000000000000000000000000000000000000000c7d713b49da000000000000000000000000000000000000000000000000000000000000000000e000000000000000000000000000000000000000000000000000000000000001400000000000000000000000000000000000000000000000000000000000000180000000000000000000000000000000000000000000000000000000000000002800030100230300000000000000000000000000000000c3500000000000000000000000e8d4a510000000000000000000000000000000000000000000000000000000000000000000000000000000000000000000000000000000000000000014a3824bffc05178b1ed611117e5b900adcb189b940000000000000000000000000000000000000000000000000000000000000000000000000000000000000000",
        "nonce": "0x1b",
        "chainId": "0x61"
      },
      "additionalContracts": [],
      "isFixedGasLimit": false
    }
  ],
  "receipts": [
    {
      "status": "0x1",
      "cumulativeGasUsed": "0x4e4a4",
      "logs": [
        {
          "address": "0x590f81164c28fc52135c1d015d56312edb919812",
          "topics": [
            "0xddf252ad1be2c89b69c2b068fc378daa952ba7f163c4a11628f55a4df523b3ef",
            "0x000000000000000000000000a3824bffc05178b1ed611117e5b900adcb189b94",
            "0x0000000000000000000000000000000000000000000000000000000000000000"
          ],
          "data": "0x0000000000000000000000000000000000000000000000000de0b6b3a7640000",
          "blockHash": "0xff21a4a2add04d1867d14a733d124284d4c460bf7d8cb703fc2baf1da0f3444e",
          "blockNumber": "0x2ee5f08",
          "transactionHash": "0xf413c2ca467d57eb1f6c05b5bbfcb586bee939b2ad133c3a708adb6fe25a903e",
          "transactionIndex": "0x1",
          "logIndex": "0x3",
          "removed": false
        },
        {
          "address": "0x55f16c442907e86d764afdc2a07c2de3bdac8bb7",
          "topics": [
            "0x61ed099e74a97a1d7f8bb0952a88ca8b7b8ebd00c126ea04671f92a81213318a"
          ],
          "data": "0x00000000000000000000000031894b190a8babd9a067ce59fde0bfcfd2b184700000000000000000000000000000000000000000000000000001347c538f3340",
          "blockHash": "0xff21a4a2add04d1867d14a733d124284d4c460bf7d8cb703fc2baf1da0f3444e",
          "blockNumber": "0x2ee5f08",
          "transactionHash": "0xf413c2ca467d57eb1f6c05b5bbfcb586bee939b2ad133c3a708adb6fe25a903e",
          "transactionIndex": "0x1",
          "logIndex": "0x4",
          "removed": false
        },
        {
          "address": "0x55f16c442907e86d764afdc2a07c2de3bdac8bb7",
          "topics": [
            "0x07ea52d82345d6e838192107d8fd7123d9c2ec8e916cd0aad13fd2b60db24644"
          ],
          "data": "0x000000000000000000000000000000000000000000000000000000000000006000000000000000000000000000000000000000000000000000000000000000a000000000000000000000000000000000000000000000000000000000000000c000000000000000000000000000000000000000000000000000000000000000010000000000000000000000000ee552262f7b562efced6dd4a7e2878ab897d4050000000000000000000000000000000000000000000000000000000000000000000000000000000000000000000000000000000000000000000000000000000100000000000000000000000000000000000000000000000000000f6d4f6d7f5e",
          "blockHash": "0xff21a4a2add04d1867d14a733d124284d4c460bf7d8cb703fc2baf1da0f3444e",
          "blockNumber": "0x2ee5f08",
          "transactionHash": "0xf413c2ca467d57eb1f6c05b5bbfcb586bee939b2ad133c3a708adb6fe25a903e",
          "transactionIndex": "0x1",
          "logIndex": "0x5",
          "removed": false
        },
        {
          "address": "0x6edce65403992e310a62460808c4b910d972f10f",
          "topics": [
            "0x1ab700d4ced0c005b164c0f789fd09fcbb0156d4c2041b8a3bfbcd961cd1567f"
          ],
          "data": "0x0000000000000000000000000000000000000000000000000000000000000060000000000000000000000000000000000000000000000000000000000000016000000000000000000000000055f16c442907e86d764afdc2a07c2de3bdac8bb700000000000000000000000000000000000000000000000000000000000000cd01000000000000001200009ca6000000000000000000000000590f81164c28fc52135c1d015d56312edb91981200009daa00000000000000000000000056b2b6d7f1b95df6c74f1a3fa9a5366b2af6c2c9643fdc899654c90be0263442c4a548bf59230faf111907d3db8b8cd44f4abc98000000000000000000000000a1f743b67979554adc87d4eb2596d2c99bd74dcc00000000000f4240000000000000000000000000a3824bffc05178b1ed611117e5b900adcb189b94a3824bffc05178b1ed611117e5b900adcb189b9400000000000000000000000000000000000000000000000000000000000000000000000000000000000000000000000000003c000301001101000000000000000000000000000138800100230300000000000000000000000000000000c3500000000000000000000000e8d4a5100000000000",
          "blockHash": "0xff21a4a2add04d1867d14a733d124284d4c460bf7d8cb703fc2baf1da0f3444e",
          "blockNumber": "0x2ee5f08",
          "transactionHash": "0xf413c2ca467d57eb1f6c05b5bbfcb586bee939b2ad133c3a708adb6fe25a903e",
          "transactionIndex": "0x1",
          "logIndex": "0x6",
          "removed": false
        },
        {
          "address": "0x590f81164c28fc52135c1d015d56312edb919812",
          "topics": [
            "0x85496b760a4b7f8d66384b9df21b381f5d1b1e79f229a47aaf4c232edc2fe59a",
            "0x643fdc899654c90be0263442c4a548bf59230faf111907d3db8b8cd44f4abc98",
            "0x000000000000000000000000a3824bffc05178b1ed611117e5b900adcb189b94"
          ],
          "data": "0x0000000000000000000000000000000000000000000000000000000000009daa0000000000000000000000000000000000000000000000000de0b6b3a76400000000000000000000000000000000000000000000000000000de0b6b3a7640000",
          "blockHash": "0xff21a4a2add04d1867d14a733d124284d4c460bf7d8cb703fc2baf1da0f3444e",
          "blockNumber": "0x2ee5f08",
          "transactionHash": "0xf413c2ca467d57eb1f6c05b5bbfcb586bee939b2ad133c3a708adb6fe25a903e",
          "transactionIndex": "0x1",
          "logIndex": "0x7",
          "removed": false
        }
      ],
      "logsBloom": "0x00000004000000000000000000000000000000008000000000000000040000000000000000000000200000000000000000000000000000000000000004000000000002000000000000000008000000000000000000000000000020000000000000000000020000008200000000000800000000000000000000000010000004000000000000000020000000080000000000000000000000000000000000000000000000008000000000100000000000000000000000408000000448000000000000000002000000000000000080000000000000000000000000000040500020000000040000000000000000000000002000000000008080000000000000000000",
      "type": "0x0",
      "transactionHash": "0xf413c2ca467d57eb1f6c05b5bbfcb586bee939b2ad133c3a708adb6fe25a903e",
      "transactionIndex": "0x1",
      "blockHash": "0xff21a4a2add04d1867d14a733d124284d4c460bf7d8cb703fc2baf1da0f3444e",
      "blockNumber": "0x2ee5f08",
      "gasUsed": "0x37b86",
      "effectiveGasPrice": "0x4a817c800",
      "from": "0xa3824bffc05178b1ed611117e5b900adcb189b94",
      "to": "0x590f81164c28fc52135c1d015d56312edb919812",
      "contractAddress": null
    }
  ],
  "libraries": [],
  "pending": [],
  "returns": {},
  "timestamp": 1742252266,
  "chain": 97,
  "commit": "218ac8823"
}
