{
  "transactions": [
    {
      "hash": "0x7711d01915feedb5c319ccb01d5fefdb21a918bd58e325e5f30ae2c0f29ae322",
      "transactionType": "CALL",
      "contractName": null,
      "contractAddress": "0x590f81164c28fc52135c1d015d56312edb919812",
      "function": "send((uint32,bytes32,uint256,uint256,bytes,bytes,bytes),(uint256,uint256),address)",
      "arguments": [
        "(40362, 0x000000000000000000000000acc732e49f38002af5f29e9f042494e535207350, 1000000000000, 900000000000, 0x00030100130300000000000000000000000000000000c350, 0x000000000000000000009ca6000000000000000000000000000000000000000000000000000000e8d4a51000000000000000000000000000acc732e49f38002af5f29e9f042494e535207350acc732e49f38002af5f29e9f042494e535207350, 0x)",
        "(356145328417770, 0)",
        "0xa3824BFfc05178b1eD611117e5b900adCb189b94"
      ],
      "transaction": {
        "from": "0xa3824bffc05178b1ed611117e5b900adcb189b94",
        "to": "0x590f81164c28fc52135c1d015d56312edb919812",
        "gas": "0x58316",
        "value": "0x143e98bc9ebea",
        "input": "0xc7c7f5b30000000000000000000000000000000000000000000000000000000000000080000000000000000000000000000000000000000000000000000143e98bc9ebea0000000000000000000000000000000000000000000000000000000000000000000000000000000000000000a3824bffc05178b1ed611117e5b900adcb189b940000000000000000000000000000000000000000000000000000000000009daa000000000000000000000000acc732e49f38002af5f29e9f042494e535207350000000000000000000000000000000000000000000000000000000e8d4a51000000000000000000000000000000000000000000000000000000000d18c2e280000000000000000000000000000000000000000000000000000000000000000e0000000000000000000000000000000000000000000000000000000000000012000000000000000000000000000000000000000000000000000000000000001a0000000000000000000000000000000000000000000000000000000000000001800030100130300000000000000000000000000000000c35000000000000000000000000000000000000000000000000000000000000000000000000000000060000000000000000000009ca6000000000000000000000000000000000000000000000000000000e8d4a51000000000000000000000000000acc732e49f38002af5f29e9f042494e535207350acc732e49f38002af5f29e9f042494e5352073500000000000000000000000000000000000000000000000000000000000000000",
        "nonce": "0x8",
        "chainId": "0x61"
      },
      "additionalContracts": [],
      "isFixedGasLimit": false
    }
  ],
  "receipts": [
    {
      "status": "0x1",
      "cumulativeGasUsed": "0x3c4d9",
      "logs": [
        {
          "address": "0x590f81164c28fc52135c1d015d56312edb919812",
          "topics": [
            "0xddf252ad1be2c89b69c2b068fc378daa952ba7f163c4a11628f55a4df523b3ef",
            "0x000000000000000000000000a3824bffc05178b1ed611117e5b900adcb189b94",
            "0x0000000000000000000000000000000000000000000000000000000000000000"
          ],
          "data": "0x000000000000000000000000000000000000000000000000000000e8d4a51000",
          "blockHash": "0xed69276e4ddf146dedb601e3e280b08032ad8ca2ee02250e08bbda3d015dd80b",
          "blockNumber": "0x2ecffaf",
          "transactionHash": "0x7711d01915feedb5c319ccb01d5fefdb21a918bd58e325e5f30ae2c0f29ae322",
          "transactionIndex": "0x0",
          "logIndex": "0x0",
          "removed": false
        },
        {
          "address": "0x55f16c442907e86d764afdc2a07c2de3bdac8bb7",
          "topics": [
            "0x61ed099e74a97a1d7f8bb0952a88ca8b7b8ebd00c126ea04671f92a81213318a"
          ],
          "data": "0x00000000000000000000000031894b190a8babd9a067ce59fde0bfcfd2b184700000000000000000000000000000000000000000000000000001347c3c5c6c8c",
          "blockHash": "0xed69276e4ddf146dedb601e3e280b08032ad8ca2ee02250e08bbda3d015dd80b",
          "blockNumber": "0x2ecffaf",
          "transactionHash": "0x7711d01915feedb5c319ccb01d5fefdb21a918bd58e325e5f30ae2c0f29ae322",
          "transactionIndex": "0x0",
          "logIndex": "0x1",
          "removed": false
        },
        {
          "address": "0x55f16c442907e86d764afdc2a07c2de3bdac8bb7",
          "topics": [
            "0x07ea52d82345d6e838192107d8fd7123d9c2ec8e916cd0aad13fd2b60db24644"
          ],
          "data": "0x000000000000000000000000000000000000000000000000000000000000006000000000000000000000000000000000000000000000000000000000000000a000000000000000000000000000000000000000000000000000000000000000c000000000000000000000000000000000000000000000000000000000000000010000000000000000000000000ee552262f7b562efced6dd4a7e2878ab897d4050000000000000000000000000000000000000000000000000000000000000000000000000000000000000000000000000000000000000000000000000000000100000000000000000000000000000000000000000000000000000f6d4f6d7f5e",
          "blockHash": "0xed69276e4ddf146dedb601e3e280b08032ad8ca2ee02250e08bbda3d015dd80b",
          "blockNumber": "0x2ecffaf",
          "transactionHash": "0x7711d01915feedb5c319ccb01d5fefdb21a918bd58e325e5f30ae2c0f29ae322",
          "transactionIndex": "0x0",
          "logIndex": "0x2",
          "removed": false
        },
        {
          "address": "0x6edce65403992e310a62460808c4b910d972f10f",
          "topics": [
            "0x1ab700d4ced0c005b164c0f789fd09fcbb0156d4c2041b8a3bfbcd961cd1567f"
          ],
          "data": "0x000000000000000000000000000000000000000000000000000000000000006000000000000000000000000000000000000000000000000000000000000001a000000000000000000000000055f16c442907e86d764afdc2a07c2de3bdac8bb7000000000000000000000000000000000000000000000000000000000000011901000000000000000100009ca6000000000000000000000000590f81164c28fc52135c1d015d56312edb91981200009daa00000000000000000000000056b2b6d7f1b95df6c74f1a3fa9a5366b2af6c2c969e33ba093950db4f3a2cc781c56ec89f67da569d49d66a4d89d306d79305f61000000000000000000000000acc732e49f38002af5f29e9f042494e5352073500000000000000001000000000000000000000000a3824bffc05178b1ed611117e5b900adcb189b94000000000000000000009ca6000000000000000000000000000000000000000000000000000000e8d4a51000000000000000000000000000acc732e49f38002af5f29e9f042494e535207350acc732e49f38002af5f29e9f042494e53520735000000000000000000000000000000000000000000000000000000000000000000000000000002c000301001101000000000000000000000000000138800100130300000000000000000000000000000000c3500000000000000000000000000000000000000000",
          "blockHash": "0xed69276e4ddf146dedb601e3e280b08032ad8ca2ee02250e08bbda3d015dd80b",
          "blockNumber": "0x2ecffaf",
          "transactionHash": "0x7711d01915feedb5c319ccb01d5fefdb21a918bd58e325e5f30ae2c0f29ae322",
          "transactionIndex": "0x0",
          "logIndex": "0x3",
          "removed": false
        },
        {
          "address": "0x590f81164c28fc52135c1d015d56312edb919812",
          "topics": [
            "0x85496b760a4b7f8d66384b9df21b381f5d1b1e79f229a47aaf4c232edc2fe59a",
            "0x69e33ba093950db4f3a2cc781c56ec89f67da569d49d66a4d89d306d79305f61",
            "0x000000000000000000000000a3824bffc05178b1ed611117e5b900adcb189b94"
          ],
          "data": "0x0000000000000000000000000000000000000000000000000000000000009daa000000000000000000000000000000000000000000000000000000e8d4a51000000000000000000000000000000000000000000000000000000000e8d4a51000",
          "blockHash": "0xed69276e4ddf146dedb601e3e280b08032ad8ca2ee02250e08bbda3d015dd80b",
          "blockNumber": "0x2ecffaf",
          "transactionHash": "0x7711d01915feedb5c319ccb01d5fefdb21a918bd58e325e5f30ae2c0f29ae322",
          "transactionIndex": "0x0",
          "logIndex": "0x4",
          "removed": false
        }
      ],
      "logsBloom": "0x00000004000000000000000000000000000000000000000000000000040000000000000000000000200000000000000000000000000000000000000004000000000002000000000000000008000000000000000000000000000020000000000000800000020000008200000000000800000000000000000000000010000004000000000000000020000000080000000000000000000000000000000000000000000000008000000000100000000000000000000000400000000448002000000000000002000000000000000080000000000000000000000000000040500020000000040000000000000000000000002000000000008080000000000000000000",
      "type": "0x0",
      "transactionHash": "0x7711d01915feedb5c319ccb01d5fefdb21a918bd58e325e5f30ae2c0f29ae322",
      "transactionIndex": "0x0",
      "blockHash": "0xed69276e4ddf146dedb601e3e280b08032ad8ca2ee02250e08bbda3d015dd80b",
      "blockNumber": "0x2ecffaf",
      "gasUsed": "0x3c4d9",
      "effectiveGasPrice": "0xb2d05e00",
      "from": "0xa3824bffc05178b1ed611117e5b900adcb189b94",
      "to": "0x590f81164c28fc52135c1d015d56312edb919812",
      "contractAddress": null
    }
  ],
  "libraries": [],
  "pending": [],
  "returns": {},
  "timestamp": 1741982166,
  "chain": 97,
  "commit": "218ac8823"
}
