{
  "transactions": [
    {
      "hash": null,
      "transactionType": "CALL",
      "contractName": null,
      "contractAddress": "0x590f81164c28fc52135c1d015d56312edb919812",
      "function": "send((uint32,bytes32,uint256,uint256,bytes,bytes,bytes),(uint256,uint256),address)",
      "arguments": [
        "(40362, 0x000000000000000000000000acc732e49f38002af5f29e9f042494e535207350, 1000000000000, 900000000000, 0x00030100130300000000000000000000000000000000c350, 0x000000000000000000009ca6000000000000000000000000000000000000000000000000000000e8d4a51000000000000000000000000000acc732e49f38002af5f29e9f042494e535207350acc732e49f38002af5f29e9f042494e535207350, 0x)",
        "(356145328417770, 0)",
        "0xa3824BFfc05178b1eD611117e5b900adCb189b94"
      ],
      "transaction": {
        "from": "0xa3824bffc05178b1ed611117e5b900adcb189b94",
        "to": "0x590f81164c28fc52135c1d015d56312edb919812",
        "gas": "0x58316",
        "value": "0x143e98bc9ebea",
        "input": "0xc7c7f5b30000000000000000000000000000000000000000000000000000000000000080000000000000000000000000000000000000000000000000000143e98bc9ebea0000000000000000000000000000000000000000000000000000000000000000000000000000000000000000a3824bffc05178b1ed611117e5b900adcb189b940000000000000000000000000000000000000000000000000000000000009daa000000000000000000000000acc732e49f38002af5f29e9f042494e535207350000000000000000000000000000000000000000000000000000000e8d4a51000000000000000000000000000000000000000000000000000000000d18c2e280000000000000000000000000000000000000000000000000000000000000000e0000000000000000000000000000000000000000000000000000000000000012000000000000000000000000000000000000000000000000000000000000001a0000000000000000000000000000000000000000000000000000000000000001800030100130300000000000000000000000000000000c35000000000000000000000000000000000000000000000000000000000000000000000000000000060000000000000000000009ca6000000000000000000000000000000000000000000000000000000e8d4a51000000000000000000000000000acc732e49f38002af5f29e9f042494e535207350acc732e49f38002af5f29e9f042494e5352073500000000000000000000000000000000000000000000000000000000000000000",
        "nonce": "0x8",
        "chainId": "0x61"
      },
      "additionalContracts": [],
      "isFixedGasLimit": false
    }
  ],
  "receipts": [],
  "libraries": [],
  "pending": [],
  "returns": {},
  "timestamp": 1741982126,
  "chain": 97,
  "commit": "218ac8823"
}
