{
  "transactions": [
    {
      "hash": "0xcd114c9daf24bb7a9ed83fba48686e930136eacc11213dfbc61d044bad4bdf8d",
      "transactionType": "CALL",
      "contractName": null,
      "contractAddress": "0xad543c6af375b1001e3b08202b1eb3e6e608a42f",
      "function": "mint(address,uint256)",
      "arguments": [
        "0xAb3DA9e8Fd49256957b8272f68FF5793F697Bc39",
        "1000000000000000000"
      ],
      "transaction": {
        "from": "0xa3824bffc05178b1ed611117e5b900adcb189b94",
        "to": "0xad543c6af375b1001e3b08202b1eb3e6e608a42f",
        "gas": "0xb884",
        "value": "0x0",
        "input": "0x40c10f19000000000000000000000000ab3da9e8fd49256957b8272f68ff5793f697bc390000000000000000000000000000000000000000000000000de0b6b3a7640000",
        "nonce": "0x28",
        "chainId": "0x3e6"
      },
      "additionalContracts": [],
      "isFixedGasLimit": false
    },
    {
      "hash": "0xd78a555dc2a4c77c02f6ebee545cf1f3f9348959487ed7f63d78a79f125b8e96",
      "transactionType": "CALL",
      "contractName": null,
      "contractAddress": "0xab3da9e8fd49256957b8272f68ff5793f697bc39",
      "function": "sendAssetToHyperCore(address,uint256)",
      "arguments": [
        "0xa3824BFfc05178b1eD611117e5b900adCb189b94",
        "1000000000000000000"
      ],
      "transaction": {
        "from": "0xa3824bffc05178b1ed611117e5b900adcb189b94",
        "to": "0xab3da9e8fd49256957b8272f68ff5793f697bc39",
        "gas": "0xe9e6",
        "value": "0x0",
        "input": "0xd9acf0ec000000000000000000000000a3824bffc05178b1ed611117e5b900adcb189b940000000000000000000000000000000000000000000000000de0b6b3a7640000",
        "nonce": "0x29",
        "chainId": "0x3e6"
      },
      "additionalContracts": [],
      "isFixedGasLimit": false
    }
  ],
  "receipts": [
    {
      "status": "0x1",
      "cumulativeGasUsed": "0xfe80",
      "logs": [
        {
          "address": "0xad543c6af375b1001e3b08202b1eb3e6e608a42f",
          "topics": [
            "0xddf252ad1be2c89b69c2b068fc378daa952ba7f163c4a11628f55a4df523b3ef",
            "0x0000000000000000000000000000000000000000000000000000000000000000",
            "0x000000000000000000000000ab3da9e8fd49256957b8272f68ff5793f697bc39"
          ],
          "data": "0x0000000000000000000000000000000000000000000000000de0b6b3a7640000",
          "blockHash": "0xdb30852e1d59756afb009de7bb9a780d44671a137a70f102a7b8f428d62320de",
          "blockNumber": "0x1298577",
          "blockTimestamp": "0x67d20dd2",
          "transactionHash": "0xcd114c9daf24bb7a9ed83fba48686e930136eacc11213dfbc61d044bad4bdf8d",
          "transactionIndex": "0x1",
          "logIndex": "0x1",
          "removed": false
        }
      ],
      "logsBloom": "0x00000000000000000000000000000000000000000000000000000000010000000000000000000000000000000000000000000000000000000000000000000008000000000000000000000008000000000000000000000000000000000000000000000000020000000000000000000800000000000800000000000010000000000000000400000000000000001000000000000000000000000000000000000000000000000000000000000000000000080000000000000000000000000000000000000002000000000000000000000000000000000000000000000000000020000000000000000000000000000000000000000000000000000000000000000000",
      "type": "0x2",
      "transactionHash": "0xcd114c9daf24bb7a9ed83fba48686e930136eacc11213dfbc61d044bad4bdf8d",
      "transactionIndex": "0x1",
      "blockHash": "0xdb30852e1d59756afb009de7bb9a780d44671a137a70f102a7b8f428d62320de",
      "blockNumber": "0x1298577",
      "gasUsed": "0x8597",
      "effectiveGasPrice": "0x5f5e101",
      "from": "0xa3824bffc05178b1ed611117e5b900adcb189b94",
      "to": "0xad543c6af375b1001e3b08202b1eb3e6e608a42f",
      "contractAddress": null
    },
    {
      "status": "0x1",
      "cumulativeGasUsed": "0x1a7d7",
      "logs": [
        {
          "address": "0xad543c6af375b1001e3b08202b1eb3e6e608a42f",
          "topics": [
            "0xddf252ad1be2c89b69c2b068fc378daa952ba7f163c4a11628f55a4df523b3ef",
            "0x000000000000000000000000ab3da9e8fd49256957b8272f68ff5793f697bc39",
            "0x00000000000000000000000020000000000000000000000000000000000004cf"
          ],
          "data": "0x0000000000000000000000000000000000000000000000000de0b6b3a7640000",
          "blockHash": "0xdb30852e1d59756afb009de7bb9a780d44671a137a70f102a7b8f428d62320de",
          "blockNumber": "0x1298577",
          "blockTimestamp": "0x67d20dd2",
          "transactionHash": "0xd78a555dc2a4c77c02f6ebee545cf1f3f9348959487ed7f63d78a79f125b8e96",
          "transactionIndex": "0x2",
          "logIndex": "0x2",
          "removed": false
        },
        {
          "address": "0x3333333333333333333333333333333333333333",
          "topics": [
            "0x09f4a089fd53b0b2cd536bc6d609a82b696295ebdcb91c7e216ad11c5223f1d9",
            "0x000000000000000000000000ab3da9e8fd49256957b8272f68ff5793f697bc39",
            "0x000000000000000000000000a3824bffc05178b1ed611117e5b900adcb189b94"
          ],
          "data": "0x00000000000000000000000000000000000000000000000000000000000004cf0000000000000000000000000000000000000000000000000de0b6b3a7640000",
          "blockHash": "0xdb30852e1d59756afb009de7bb9a780d44671a137a70f102a7b8f428d62320de",
          "blockNumber": "0x1298577",
          "blockTimestamp": "0x67d20dd2",
          "transactionHash": "0xd78a555dc2a4c77c02f6ebee545cf1f3f9348959487ed7f63d78a79f125b8e96",
          "transactionIndex": "0x2",
          "logIndex": "0x3",
          "removed": false
        }
      ],
      "logsBloom": "0x00000000020000000000000000000000000000000000000000000000410000000000000000000000000000000000000000000000000000000000000000000408000000000000000000000009000000000000000000000000000020000000100000000000000000000000000000000000000000000800000000000010000000000000000400000000000000001000000000000000000000000000800000000000000000000000000000000000000000080000000000000000000080000000200000000002000000000000000000000000000000000000000000000040000000000000000000000000000000000000000000000000001080000000000000000000",
      "type": "0x2",
      "transactionHash": "0xd78a555dc2a4c77c02f6ebee545cf1f3f9348959487ed7f63d78a79f125b8e96",
      "transactionIndex": "0x2",
      "blockHash": "0xdb30852e1d59756afb009de7bb9a780d44671a137a70f102a7b8f428d62320de",
      "blockNumber": "0x1298577",
      "gasUsed": "0xa957",
      "effectiveGasPrice": "0x5f5e101",
      "from": "0xa3824bffc05178b1ed611117e5b900adcb189b94",
      "to": "0xab3da9e8fd49256957b8272f68ff5793f697bc39",
      "contractAddress": null
    }
  ],
  "libraries": [],
  "pending": [],
  "returns": {},
  "timestamp": 1741819347,
  "chain": 998,
  "commit": "218ac8823"
}
