{
  "transactions": [
    {
      "hash": "0xc63c10e272a067153f55e40d2b408cfe353b263530f76a3bf240eacd7daf606d",
      "transactionType": "CALL",
      "contractName": null,
      "contractAddress": "0xad543c6af375b1001e3b08202b1eb3e6e608a42f",
      "function": "mint(address,uint256)",
      "arguments": [
        "0x147B66268C61129f8f9D7EC5c0dD9FecCA6FE4A9",
        "1000000000000000000"
      ],
      "transaction": {
        "from": "0xa3824bffc05178b1ed611117e5b900adcb189b94",
        "to": "0xad543c6af375b1001e3b08202b1eb3e6e608a42f",
        "gas": "0xb884",
        "value": "0x0",
        "input": "0x40c10f19000000000000000000000000147b66268c61129f8f9d7ec5c0dd9fecca6fe4a90000000000000000000000000000000000000000000000000de0b6b3a7640000",
        "nonce": "0x84",
        "chainId": "0x3e6"
      },
      "additionalContracts": [],
      "isFixedGasLimit": false
    },
    {
      "hash": "0x1002f82982a78085306fc5d1ba89e0f47c7c31246c8ada16da3fabde3bf13083",
      "transactionType": "CALL",
      "contractName": null,
      "contractAddress": "0xad543c6af375b1001e3b08202b1eb3e6e608a42f",
      "function": "transfer(address,uint256)",
      "arguments": [
        "0x20000000000000000000000000000000000004cF",
        "1000000000000000000"
      ],
      "transaction": {
        "from": "0xa3824bffc05178b1ed611117e5b900adcb189b94",
        "to": "0xad543c6af375b1001e3b08202b1eb3e6e608a42f",
        "gas": "0xc394",
        "value": "0x0",
        "input": "0xa9059cbb00000000000000000000000020000000000000000000000000000000000004cf0000000000000000000000000000000000000000000000000de0b6b3a7640000",
        "nonce": "0x85",
        "chainId": "0x3e6"
      },
      "additionalContracts": [],
      "isFixedGasLimit": false
    }
  ],
  "receipts": [
    {
      "status": "0x1",
      "cumulativeGasUsed": "0x8597",
      "logs": [
        {
          "address": "0xad543c6af375b1001e3b08202b1eb3e6e608a42f",
          "topics": [
            "0xddf252ad1be2c89b69c2b068fc378daa952ba7f163c4a11628f55a4df523b3ef",
            "0x0000000000000000000000000000000000000000000000000000000000000000",
            "0x000000000000000000000000147b66268c61129f8f9d7ec5c0dd9fecca6fe4a9"
          ],
          "data": "0x0000000000000000000000000000000000000000000000000de0b6b3a7640000",
          "blockHash": "0x8321732c42a359d8a3e0f43f3a21289d8b3d71d3ae722689faec5895d73815b3",
          "blockNumber": "0x12cc74a",
          "blockTimestamp": "0x67d8981c",
          "transactionHash": "0xc63c10e272a067153f55e40d2b408cfe353b263530f76a3bf240eacd7daf606d",
          "transactionIndex": "0x0",
          "logIndex": "0x0",
          "removed": false
        }
      ],
      "logsBloom": "0x00000000000000000000000000000000000000000000000000000000000000000000000000000000000000000000000000000000000000000000000000000008000000000000000000000008000000000000000000000000000000000000000000000000020000000000000000000800000000000000000000000010000000000000000000000000000000001000000000000000000000000000000000000000000000000000000000000000000000080100000000000000000000000000000000000002000000000000000000000000000000000000020000000000000020000000000000000000001000000000000000000000000000000000000000000000",
      "type": "0x2",
      "transactionHash": "0xc63c10e272a067153f55e40d2b408cfe353b263530f76a3bf240eacd7daf606d",
      "transactionIndex": "0x0",
      "blockHash": "0x8321732c42a359d8a3e0f43f3a21289d8b3d71d3ae722689faec5895d73815b3",
      "blockNumber": "0x12cc74a",
      "gasUsed": "0x8597",
      "effectiveGasPrice": "0x5f5e101",
      "from": "0xa3824bffc05178b1ed611117e5b900adcb189b94",
      "to": "0xad543c6af375b1001e3b08202b1eb3e6e608a42f",
      "contractAddress": null
    },
    {
      "status": "0x1",
      "cumulativeGasUsed": "0x10b52",
      "logs": [
        {
          "address": "0xad543c6af375b1001e3b08202b1eb3e6e608a42f",
          "topics": [
            "0xddf252ad1be2c89b69c2b068fc378daa952ba7f163c4a11628f55a4df523b3ef",
            "0x000000000000000000000000a3824bffc05178b1ed611117e5b900adcb189b94",
            "0x00000000000000000000000020000000000000000000000000000000000004cf"
          ],
          "data": "0x0000000000000000000000000000000000000000000000000de0b6b3a7640000",
          "blockHash": "0x8321732c42a359d8a3e0f43f3a21289d8b3d71d3ae722689faec5895d73815b3",
          "blockNumber": "0x12cc74a",
          "blockTimestamp": "0x67d8981c",
          "transactionHash": "0x1002f82982a78085306fc5d1ba89e0f47c7c31246c8ada16da3fabde3bf13083",
          "transactionIndex": "0x1",
          "logIndex": "0x1",
          "removed": false
        }
      ],
      "logsBloom": "0x00000000000000000000000000000000000000000000000000000000000000000000000000000000000000000000000000000000000000000000000000000008000000000000000000000009000000000000000000000000000020000000000000000000000000000000000000000000000000000000000000000010000000000000000000000000000000001000000000000000000000000000000000000000000000000000000000000000000000080000000000000000000000000000200000000002000000000000000000000000000000000000000000000040000000000000000000000000000000000000000000000000001080000000000000000000",
      "type": "0x2",
      "transactionHash": "0x1002f82982a78085306fc5d1ba89e0f47c7c31246c8ada16da3fabde3bf13083",
      "transactionIndex": "0x1",
      "blockHash": "0x8321732c42a359d8a3e0f43f3a21289d8b3d71d3ae722689faec5895d73815b3",
      "blockNumber": "0x12cc74a",
      "gasUsed": "0x85bb",
      "effectiveGasPrice": "0x5f5e101",
      "from": "0xa3824bffc05178b1ed611117e5b900adcb189b94",
      "to": "0xad543c6af375b1001e3b08202b1eb3e6e608a42f",
      "contractAddress": null
    }
  ],
  "libraries": [],
  "pending": [],
  "returns": {},
  "timestamp": 1742247964,
  "chain": 998,
  "commit": "218ac8823"
}
