{
  "transactions": [
    {
      "hash": "0xb77c0e3e7819d5c7dd86f03076b8293950e29bf2a57a77eed712246bcf945e30",
      "transactionType": "CALL",
      "contractName": null,
      "contractAddress": "0xad543c6af375b1001e3b08202b1eb3e6e608a42f",
      "function": "mint(address,uint256)",
      "arguments": [
        "0xc223D1b5a2e7C3896D5594B69425F1a099DE75d9",
        "1000000000000000000"
      ],
      "transaction": {
        "from": "0xa3824bffc05178b1ed611117e5b900adcb189b94",
        "to": "0xad543c6af375b1001e3b08202b1eb3e6e608a42f",
        "gas": "0x12510",
        "value": "0x0",
        "input": "0x40c10f19000000000000000000000000c223d1b5a2e7c3896d5594b69425f1a099de75d90000000000000000000000000000000000000000000000000de0b6b3a7640000",
        "nonce": "0x7b",
        "chainId": "0x3e6"
      },
      "additionalContracts": [],
      "isFixedGasLimit": false
    },
    {
      "hash": "0xe2026cc3c019b338555c11dbc6d17b3012064b84a4508a4baa5af828a39a02eb",
      "transactionType": "CALL",
      "contractName": null,
      "contractAddress": "0xad543c6af375b1001e3b08202b1eb3e6e608a42f",
      "function": "transfer(address,uint256)",
      "arguments": [
        "0x20000000000000000000000000000000000004cF",
        "1000000000000000000"
      ],
      "transaction": {
        "from": "0xa3824bffc05178b1ed611117e5b900adcb189b94",
        "to": "0xad543c6af375b1001e3b08202b1eb3e6e608a42f",
        "gas": "0xc394",
        "value": "0x0",
        "input": "0xa9059cbb00000000000000000000000020000000000000000000000000000000000004cf0000000000000000000000000000000000000000000000000de0b6b3a7640000",
        "nonce": "0x7c",
        "chainId": "0x3e6"
      },
      "additionalContracts": [],
      "isFixedGasLimit": false
    }
  ],
  "receipts": [
    {
      "status": "0x1",
      "cumulativeGasUsed": "0xc863",
      "logs": [
        {
          "address": "0xad543c6af375b1001e3b08202b1eb3e6e608a42f",
          "topics": [
            "0xddf252ad1be2c89b69c2b068fc378daa952ba7f163c4a11628f55a4df523b3ef",
            "0x0000000000000000000000000000000000000000000000000000000000000000",
            "0x000000000000000000000000c223d1b5a2e7c3896d5594b69425f1a099de75d9"
          ],
          "data": "0x0000000000000000000000000000000000000000000000000de0b6b3a7640000",
          "blockHash": "0x336e3ee2c35ef1c90a666d5c2d10c4bfff05c451687594c99a1c382e54426b37",
          "blockNumber": "0x12cc398",
          "blockTimestamp": "0x67d890e2",
          "transactionHash": "0xb77c0e3e7819d5c7dd86f03076b8293950e29bf2a57a77eed712246bcf945e30",
          "transactionIndex": "0x0",
          "logIndex": "0x0",
          "removed": false
        }
      ],
      "logsBloom": "0x00000000000000000000000000000000000000000000000000000000000000000000000010000000000000000000000000000000000000000000000000000008000000000000000000000008000000000000000000000000000000000000000000000000020000000000000000000800000000000000000000000010000000000000000000000000000000001000000000000000000000000000000000000000000000000000000000000000000000080000000000000000000000000000000000000002000000000000000000000000000000000000000000000000000020000000000000400000000000000000000400000000000000000000000000000000",
      "type": "0x2",
      "transactionHash": "0xb77c0e3e7819d5c7dd86f03076b8293950e29bf2a57a77eed712246bcf945e30",
      "transactionIndex": "0x0",
      "blockHash": "0x336e3ee2c35ef1c90a666d5c2d10c4bfff05c451687594c99a1c382e54426b37",
      "blockNumber": "0x12cc398",
      "gasUsed": "0xc863",
      "effectiveGasPrice": "0x5f5e101",
      "from": "0xa3824bffc05178b1ed611117e5b900adcb189b94",
      "to": "0xad543c6af375b1001e3b08202b1eb3e6e608a42f",
      "contractAddress": null
    },
    {
      "status": "0x1",
      "cumulativeGasUsed": "0x14e1e",
      "logs": [
        {
          "address": "0xad543c6af375b1001e3b08202b1eb3e6e608a42f",
          "topics": [
            "0xddf252ad1be2c89b69c2b068fc378daa952ba7f163c4a11628f55a4df523b3ef",
            "0x000000000000000000000000a3824bffc05178b1ed611117e5b900adcb189b94",
            "0x00000000000000000000000020000000000000000000000000000000000004cf"
          ],
          "data": "0x0000000000000000000000000000000000000000000000000de0b6b3a7640000",
          "blockHash": "0x336e3ee2c35ef1c90a666d5c2d10c4bfff05c451687594c99a1c382e54426b37",
          "blockNumber": "0x12cc398",
          "blockTimestamp": "0x67d890e2",
          "transactionHash": "0xe2026cc3c019b338555c11dbc6d17b3012064b84a4508a4baa5af828a39a02eb",
          "transactionIndex": "0x1",
          "logIndex": "0x1",
          "removed": false
        }
      ],
      "logsBloom": "0x00000000000000000000000000000000000000000000000000000000000000000000000000000000000000000000000000000000000000000000000000000008000000000000000000000009000000000000000000000000000020000000000000000000000000000000000000000000000000000000000000000010000000000000000000000000000000001000000000000000000000000000000000000000000000000000000000000000000000080000000000000000000000000000200000000002000000000000000000000000000000000000000000000040000000000000000000000000000000000000000000000000001080000000000000000000",
      "type": "0x2",
      "transactionHash": "0xe2026cc3c019b338555c11dbc6d17b3012064b84a4508a4baa5af828a39a02eb",
      "transactionIndex": "0x1",
      "blockHash": "0x336e3ee2c35ef1c90a666d5c2d10c4bfff05c451687594c99a1c382e54426b37",
      "blockNumber": "0x12cc398",
      "gasUsed": "0x85bb",
      "effectiveGasPrice": "0x5f5e101",
      "from": "0xa3824bffc05178b1ed611117e5b900adcb189b94",
      "to": "0xad543c6af375b1001e3b08202b1eb3e6e608a42f",
      "contractAddress": null
    }
  ],
  "libraries": [],
  "pending": [],
  "returns": {},
  "timestamp": 1742246114,
  "chain": 998,
  "commit": "218ac8823"
}
