{
  "transactions": [
    {
      "hash": "0xd4962b8152c4c1e45374d9680893b74b40034f71b61705a16d87e6be16008e44",
      "transactionType": "CALL",
      "contractName": null,
      "contractAddress": "0xab3da9e8fd49256957b8272f68ff5793f697bc39",
      "function": "transferFromHyperCore(uint256)",
      "arguments": ["1000000"],
      "transaction": {
        "from": "0xa3824bffc05178b1ed611117e5b900adcb189b94",
        "to": "0xab3da9e8fd49256957b8272f68ff5793f697bc39",
        "gas": "0x946d",
        "value": "0x0",
        "input": "0xbc975c6b00000000000000000000000000000000000000000000000000000000000f4240",
        "nonce": "0x39",
        "chainId": "0x3e6"
      },
      "additionalContracts": [],
      "isFixedGasLimit": false
    }
  ],
  "receipts": [
    {
      "status": "0x1",
      "cumulativeGasUsed": "0xe45f",
      "logs": [
        {
          "address": "0xab3da9e8fd49256957b8272f68ff5793f697bc39",
          "topics": [
            "0x09f4a089fd53b0b2cd536bc6d609a82b696295ebdcb91c7e216ad11c5223f1d9",
            "0x000000000000000000000000a3824bffc05178b1ed611117e5b900adcb189b94",
            "0x00000000000000000000000020000000000000000000000000000000000004cf"
          ],
          "data": "0x00000000000000000000000000000000000000000000000000000000000004cf00000000000000000000000000000000000000000000000000000000000f4240",
          "blockHash": "0xf48c719df3291b38926d752c3444e102c2cfa14f51d2ffe531fec7b15872ebca",
          "blockNumber": "0x12987ef",
          "blockTimestamp": "0x67d2129e",
          "transactionHash": "0xd4962b8152c4c1e45374d9680893b74b40034f71b61705a16d87e6be16008e44",
          "transactionIndex": "0x1",
          "logIndex": "0x1",
          "removed": false
        }
      ],
      "logsBloom": "0x00000000000000000000000000000000000000000000000000000000000000000000000000000000000000000000000000000000000000000000100000000000000000000000000000000001000000000000000000000000000020000000100000000000000000000000000000000000000000000000000000000000000000000000000000000000000000000000000000000000000000000000800000000000000000000000000000000000000000000000000000000000000080000000200000000000000000000000000400000000000000000000000000000040000000000000000000000000000000000000000000000000001080000000800000000000",
      "type": "0x2",
      "transactionHash": "0xd4962b8152c4c1e45374d9680893b74b40034f71b61705a16d87e6be16008e44",
      "transactionIndex": "0x1",
      "blockHash": "0xf48c719df3291b38926d752c3444e102c2cfa14f51d2ffe531fec7b15872ebca",
      "blockNumber": "0x12987ef",
      "gasUsed": "0x6b76",
      "effectiveGasPrice": "0x5f5e101",
      "from": "0xa3824bffc05178b1ed611117e5b900adcb189b94",
      "to": "0xab3da9e8fd49256957b8272f68ff5793f697bc39",
      "contractAddress": null
    }
  ],
  "libraries": [],
  "pending": [],
  "returns": {},
  "timestamp": 1741820574,
  "chain": 998,
  "commit": "218ac8823"
}
