{
  "transactions": [
    {
      "hash": "0xdaef958e5f8f2d1ac2ceb711fc8e259867bb75d53a0d3e850f31c7faf431a0d1",
      "transactionType": "CALL",
      "contractName": null,
      "contractAddress": "0xad543c6af375b1001e3b08202b1eb3e6e608a42f",
      "function": "mint(address,uint256)",
      "arguments": [
        "0xACc732E49f38002aF5F29E9f042494e535207350",
        "10000000000000000"
      ],
      "transaction": {
        "from": "0xa3824bffc05178b1ed611117e5b900adcb189b94",
        "to": "0xad543c6af375b1001e3b08202b1eb3e6e608a42f",
        "gas": "0xb863",
        "value": "0x0",
        "input": "0x40c10f19000000000000000000000000acc732e49f38002af5f29e9f042494e535207350000000000000000000000000000000000000000000000000002386f26fc10000",
        "nonce": "0x60",
        "chainId": "0x3e6"
      },
      "additionalContracts": [],
      "isFixedGasLimit": false
    },
    {
      "hash": "0x234fbee2bfb3a579487f86de6228cc8545a6351b10b396a3466e45fdaca48d90",
      "transactionType": "CALL",
      "contractName": null,
      "contractAddress": "0xacc732e49f38002af5f29e9f042494e535207350",
      "function": "sendAssetToHyperCore(address,uint256)",
      "arguments": [
        "0xa3824BFfc05178b1eD611117e5b900adCb189b94",
        "10000000000"
      ],
      "transaction": {
        "from": "0xa3824bffc05178b1ed611117e5b900adcb189b94",
        "to": "0xacc732e49f38002af5f29e9f042494e535207350",
        "gas": "0xe960",
        "value": "0x0",
        "input": "0xd9acf0ec000000000000000000000000a3824bffc05178b1ed611117e5b900adcb189b9400000000000000000000000000000000000000000000000000000002540be400",
        "nonce": "0x61",
        "chainId": "0x3e6"
      },
      "additionalContracts": [],
      "isFixedGasLimit": false
    }
  ],
  "receipts": [
    {
      "status": "0x1",
      "cumulativeGasUsed": "0x857f",
      "logs": [
        {
          "address": "0xad543c6af375b1001e3b08202b1eb3e6e608a42f",
          "topics": [
            "0xddf252ad1be2c89b69c2b068fc378daa952ba7f163c4a11628f55a4df523b3ef",
            "0x0000000000000000000000000000000000000000000000000000000000000000",
            "0x000000000000000000000000acc732e49f38002af5f29e9f042494e535207350"
          ],
          "data": "0x000000000000000000000000000000000000000000000000002386f26fc10000",
          "blockHash": "0xd21a7f5481b6f76eb71c8af7a38c6c5ea8313fa21bb27a5184c27b3fbe7eba2e",
          "blockNumber": "0x12cb34c",
          "blockTimestamp": "0x67d87110",
          "transactionHash": "0xdaef958e5f8f2d1ac2ceb711fc8e259867bb75d53a0d3e850f31c7faf431a0d1",
          "transactionIndex": "0x0",
          "logIndex": "0x0",
          "removed": false
        }
      ],
      "logsBloom": "0x00000000000000000000000000000000000000000000000000002000000000000000000000000000000000000000000000000000000000000000000000000008000000000000000000000008000000000000000000000000000000000000000000000000020000000000000000000800000000000000000000000010000000000000000000000000000000001000000000000000000000000000000000000000000000000000000000000000000000080000000000000000000000000000000000000002000000000000000000000000000000000000000000000000000020002000000000000000000000020000000000000000000000000000000000000000",
      "type": "0x2",
      "transactionHash": "0xdaef958e5f8f2d1ac2ceb711fc8e259867bb75d53a0d3e850f31c7faf431a0d1",
      "transactionIndex": "0x0",
      "blockHash": "0xd21a7f5481b6f76eb71c8af7a38c6c5ea8313fa21bb27a5184c27b3fbe7eba2e",
      "blockNumber": "0x12cb34c",
      "gasUsed": "0x857f",
      "effectiveGasPrice": "0x5f5e101",
      "from": "0xa3824bffc05178b1ed611117e5b900adcb189b94",
      "to": "0xad543c6af375b1001e3b08202b1eb3e6e608a42f",
      "contractAddress": null
    },
    {
      "status": "0x1",
      "cumulativeGasUsed": "0x12e75",
      "logs": [
        {
          "address": "0xad543c6af375b1001e3b08202b1eb3e6e608a42f",
          "topics": [
            "0xddf252ad1be2c89b69c2b068fc378daa952ba7f163c4a11628f55a4df523b3ef",
            "0x000000000000000000000000acc732e49f38002af5f29e9f042494e535207350",
            "0x00000000000000000000000020000000000000000000000000000000000004cf"
          ],
          "data": "0x00000000000000000000000000000000000000000000000000000002540be400",
          "blockHash": "0xd21a7f5481b6f76eb71c8af7a38c6c5ea8313fa21bb27a5184c27b3fbe7eba2e",
          "blockNumber": "0x12cb34c",
          "blockTimestamp": "0x67d87110",
          "transactionHash": "0x234fbee2bfb3a579487f86de6228cc8545a6351b10b396a3466e45fdaca48d90",
          "transactionIndex": "0x1",
          "logIndex": "0x1",
          "removed": false
        },
        {
          "address": "0x3333333333333333333333333333333333333333",
          "topics": [
            "0x09f4a089fd53b0b2cd536bc6d609a82b696295ebdcb91c7e216ad11c5223f1d9",
            "0x000000000000000000000000acc732e49f38002af5f29e9f042494e535207350",
            "0x000000000000000000000000a3824bffc05178b1ed611117e5b900adcb189b94"
          ],
          "data": "0x00000000000000000000000000000000000000000000000000000000000004cf00000000000000000000000000000000000000000000000000000002540be400",
          "blockHash": "0xd21a7f5481b6f76eb71c8af7a38c6c5ea8313fa21bb27a5184c27b3fbe7eba2e",
          "blockNumber": "0x12cb34c",
          "blockTimestamp": "0x67d87110",
          "transactionHash": "0x234fbee2bfb3a579487f86de6228cc8545a6351b10b396a3466e45fdaca48d90",
          "transactionIndex": "0x1",
          "logIndex": "0x2",
          "removed": false
        }
      ],
      "logsBloom": "0x00000000020000000000000000000000000000000000000000002000400000000000000000000000000000000000000000000000000000000000000000000408000000000000000000000009000000000000000000000000000020000000100000000000000000000000000000000000000000000000000000000010000000000000000000000000000000001000000000000000000000000000800000000000000000000000000000000000000000080000000000000000000080000000200000000002000000000000000000000000000000000000000000000040000000002000000000000000000000020000000000000000001080000000000000000000",
      "type": "0x2",
      "transactionHash": "0x234fbee2bfb3a579487f86de6228cc8545a6351b10b396a3466e45fdaca48d90",
      "transactionIndex": "0x1",
      "blockHash": "0xd21a7f5481b6f76eb71c8af7a38c6c5ea8313fa21bb27a5184c27b3fbe7eba2e",
      "blockNumber": "0x12cb34c",
      "gasUsed": "0xa8f6",
      "effectiveGasPrice": "0x5f5e101",
      "from": "0xa3824bffc05178b1ed611117e5b900adcb189b94",
      "to": "0xacc732e49f38002af5f29e9f042494e535207350",
      "contractAddress": null
    }
  ],
  "libraries": [],
  "pending": [],
  "returns": {},
  "timestamp": 1742237968,
  "chain": 998,
  "commit": "218ac8823"
}
