{
  "transactions": [
    {
      "hash": "0x5fa45333cd2db563024b75341d35d12cd2ddd1d623f9b3d226461a5c1d01da55",
      "transactionType": "CALL",
      "contractName": null,
      "contractAddress": "0xad543c6af375b1001e3b08202b1eb3e6e608a42f",
      "function": "mint(address,uint256)",
      "arguments": [
        "0xc223D1b5a2e7C3896D5594B69425F1a099DE75d9",
        "1000000000000000000"
      ],
      "transaction": {
        "from": "0xa3824bffc05178b1ed611117e5b900adcb189b94",
        "to": "0xad543c6af375b1001e3b08202b1eb3e6e608a42f",
        "gas": "0xb884",
        "value": "0x0",
        "input": "0x40c10f19000000000000000000000000c223d1b5a2e7c3896d5594b69425f1a099de75d90000000000000000000000000000000000000000000000000de0b6b3a7640000",
        "nonce": "0x7d",
        "chainId": "0x3e6"
      },
      "additionalContracts": [],
      "isFixedGasLimit": false
    },
    {
      "hash": "0x257a56a02cfd311204a7a9becc48b359f4090e25772d04401244f25c4b8894ff",
      "transactionType": "CALL",
      "contractName": null,
      "contractAddress": "0x3333333333333333333333333333333333333333",
      "function": "sendSpot(address,uint64,uint64)",
      "arguments": [
        "0xc223D1b5a2e7C3896D5594B69425F1a099DE75d9",
        "1231",
        "1000000"
      ],
      "transaction": {
        "from": "0xa3824bffc05178b1ed611117e5b900adcb189b94",
        "to": "0x3333333333333333333333333333333333333333",
        "gas": "0x8afe",
        "value": "0x0",
        "input": "0x0b0ac0ab000000000000000000000000c223d1b5a2e7c3896d5594b69425f1a099de75d900000000000000000000000000000000000000000000000000000000000004cf00000000000000000000000000000000000000000000000000000000000f4240",
        "nonce": "0x7e",
        "chainId": "0x3e6"
      },
      "additionalContracts": [],
      "isFixedGasLimit": false
    }
  ],
  "receipts": [
    {
      "status": "0x1",
      "cumulativeGasUsed": "0x8597",
      "logs": [
        {
          "address": "0xad543c6af375b1001e3b08202b1eb3e6e608a42f",
          "topics": [
            "0xddf252ad1be2c89b69c2b068fc378daa952ba7f163c4a11628f55a4df523b3ef",
            "0x0000000000000000000000000000000000000000000000000000000000000000",
            "0x000000000000000000000000c223d1b5a2e7c3896d5594b69425f1a099de75d9"
          ],
          "data": "0x0000000000000000000000000000000000000000000000000de0b6b3a7640000",
          "blockHash": "0xebfb2509c9051dfbaf96791d9f7a9cd6eb6a2b588a468cc0e546a385f0800a50",
          "blockNumber": "0x12cc3a3",
          "blockTimestamp": "0x67d890f8",
          "transactionHash": "0x5fa45333cd2db563024b75341d35d12cd2ddd1d623f9b3d226461a5c1d01da55",
          "transactionIndex": "0x0",
          "logIndex": "0x0",
          "removed": false
        }
      ],
      "logsBloom": "0x00000000000000000000000000000000000000000000000000000000000000000000000010000000000000000000000000000000000000000000000000000008000000000000000000000008000000000000000000000000000000000000000000000000020000000000000000000800000000000000000000000010000000000000000000000000000000001000000000000000000000000000000000000000000000000000000000000000000000080000000000000000000000000000000000000002000000000000000000000000000000000000000000000000000020000000000000400000000000000000000400000000000000000000000000000000",
      "type": "0x2",
      "transactionHash": "0x5fa45333cd2db563024b75341d35d12cd2ddd1d623f9b3d226461a5c1d01da55",
      "transactionIndex": "0x0",
      "blockHash": "0xebfb2509c9051dfbaf96791d9f7a9cd6eb6a2b588a468cc0e546a385f0800a50",
      "blockNumber": "0x12cc3a3",
      "gasUsed": "0x8597",
      "effectiveGasPrice": "0x5f5e101",
      "from": "0xa3824bffc05178b1ed611117e5b900adcb189b94",
      "to": "0xad543c6af375b1001e3b08202b1eb3e6e608a42f",
      "contractAddress": null
    },
    {
      "status": "0x1",
      "cumulativeGasUsed": "0x114e3",
      "logs": [
        {
          "address": "0x3333333333333333333333333333333333333333",
          "topics": [
            "0x09f4a089fd53b0b2cd536bc6d609a82b696295ebdcb91c7e216ad11c5223f1d9",
            "0x000000000000000000000000a3824bffc05178b1ed611117e5b900adcb189b94",
            "0x000000000000000000000000c223d1b5a2e7c3896d5594b69425f1a099de75d9"
          ],
          "data": "0x00000000000000000000000000000000000000000000000000000000000004cf00000000000000000000000000000000000000000000000000000000000f4240",
          "blockHash": "0x2babec17b82d9171e59e10e3e060404271dca2efa89ca3562ce57ff28411faa0",
          "blockNumber": "0x12cc3a4",
          "blockTimestamp": "0x67d890fa",
          "transactionHash": "0x257a56a02cfd311204a7a9becc48b359f4090e25772d04401244f25c4b8894ff",
          "transactionIndex": "0x1",
          "logIndex": "0x0",
          "removed": false
        }
      ],
      "logsBloom": "0x00000000020000000000000000000000000000000000000000000000400000000000000010000000000000000000000000000000000000000000000000000400000000000000000000000000000000000000000000000000000020000000100000000000000000000000000000000000000000000000000000000000000000000000000000000000000000000000000000000000000000000000800000000000000000000000000000000000000000000000000000000000000080000000000000000000000000000000000000000000000000000000000000000040000000000000000000400000000000000000000400000000000080000000000000000000",
      "type": "0x2",
      "transactionHash": "0x257a56a02cfd311204a7a9becc48b359f4090e25772d04401244f25c4b8894ff",
      "transactionIndex": "0x1",
      "blockHash": "0x2babec17b82d9171e59e10e3e060404271dca2efa89ca3562ce57ff28411faa0",
      "blockNumber": "0x12cc3a4",
      "gasUsed": "0x5f0a",
      "effectiveGasPrice": "0x5f5e101",
      "from": "0xa3824bffc05178b1ed611117e5b900adcb189b94",
      "to": "0x3333333333333333333333333333333333333333",
      "contractAddress": null
    }
  ],
  "libraries": [],
  "pending": [],
  "returns": {},
  "timestamp": 1742246138,
  "chain": 998,
  "commit": "218ac8823"
}
