{
  "transactions": [
    {
      "hash": "0x3113e3782d2a7e82309632b46e760361764657ea5fa0f0e4732ec0b8abef707c",
      "transactionType": "CALL",
      "contractName": null,
      "contractAddress": "0xad543c6af375b1001e3b08202b1eb3e6e608a42f",
      "function": "mint(address,uint256)",
      "arguments": [
        "0xACc732E49f38002aF5F29E9f042494e535207350",
        "1000000000000000000"
      ],
      "transaction": {
        "from": "0xa3824bffc05178b1ed611117e5b900adcb189b94",
        "to": "0xad543c6af375b1001e3b08202b1eb3e6e608a42f",
        "gas": "0xc34e",
        "value": "0x0",
        "input": "0x40c10f19000000000000000000000000acc732e49f38002af5f29e9f042494e5352073500000000000000000000000000000000000000000000000000de0b6b3a7640000",
        "nonce": "0x78",
        "chainId": "0x3e6"
      },
      "additionalContracts": [],
      "isFixedGasLimit": false
    },
    {
      "hash": "0x5772c70d492defd04a2811dfce4bfbaed2f6f75556823825cfd1a5f5a2103b76",
      "transactionType": "CALL",
      "contractName": null,
      "contractAddress": "0xad543c6af375b1001e3b08202b1eb3e6e608a42f",
      "function": "transfer(address,uint256)",
      "arguments": [
        "0x20000000000000000000000000000000000004cF",
        "1000000000000000000"
      ],
      "transaction": {
        "from": "0xa3824bffc05178b1ed611117e5b900adcb189b94",
        "to": "0xad543c6af375b1001e3b08202b1eb3e6e608a42f",
        "gas": "0xc394",
        "value": "0x0",
        "input": "0xa9059cbb00000000000000000000000020000000000000000000000000000000000004cf0000000000000000000000000000000000000000000000000de0b6b3a7640000",
        "nonce": "0x79",
        "chainId": "0x3e6"
      },
      "additionalContracts": [],
      "isFixedGasLimit": false
    }
  ],
  "receipts": [
    {
      "status": "0x1",
      "cumulativeGasUsed": "0x858b",
      "logs": [
        {
          "address": "0xad543c6af375b1001e3b08202b1eb3e6e608a42f",
          "topics": [
            "0xddf252ad1be2c89b69c2b068fc378daa952ba7f163c4a11628f55a4df523b3ef",
            "0x0000000000000000000000000000000000000000000000000000000000000000",
            "0x000000000000000000000000acc732e49f38002af5f29e9f042494e535207350"
          ],
          "data": "0x0000000000000000000000000000000000000000000000000de0b6b3a7640000",
          "blockHash": "0x7fa9d70a536ed241dc36765dc425cd2a704780884878a4351eb5e72cc44d7a68",
          "blockNumber": "0x12cb6c2",
          "blockTimestamp": "0x67d877cc",
          "transactionHash": "0x3113e3782d2a7e82309632b46e760361764657ea5fa0f0e4732ec0b8abef707c",
          "transactionIndex": "0x0",
          "logIndex": "0x0",
          "removed": false
        }
      ],
      "logsBloom": "0x00000000000000000000000000000000000000000000000000002000000000000000000000000000000000000000000000000000000000000000000000000008000000000000000000000008000000000000000000000000000000000000000000000000020000000000000000000800000000000000000000000010000000000000000000000000000000001000000000000000000000000000000000000000000000000000000000000000000000080000000000000000000000000000000000000002000000000000000000000000000000000000000000000000000020002000000000000000000000020000000000000000000000000000000000000000",
      "type": "0x2",
      "transactionHash": "0x3113e3782d2a7e82309632b46e760361764657ea5fa0f0e4732ec0b8abef707c",
      "transactionIndex": "0x0",
      "blockHash": "0x7fa9d70a536ed241dc36765dc425cd2a704780884878a4351eb5e72cc44d7a68",
      "blockNumber": "0x12cb6c2",
      "gasUsed": "0x858b",
      "effectiveGasPrice": "0x5f5e101",
      "from": "0xa3824bffc05178b1ed611117e5b900adcb189b94",
      "to": "0xad543c6af375b1001e3b08202b1eb3e6e608a42f",
      "contractAddress": null
    },
    {
      "status": "0x1",
      "cumulativeGasUsed": "0x10b46",
      "logs": [
        {
          "address": "0xad543c6af375b1001e3b08202b1eb3e6e608a42f",
          "topics": [
            "0xddf252ad1be2c89b69c2b068fc378daa952ba7f163c4a11628f55a4df523b3ef",
            "0x000000000000000000000000a3824bffc05178b1ed611117e5b900adcb189b94",
            "0x00000000000000000000000020000000000000000000000000000000000004cf"
          ],
          "data": "0x0000000000000000000000000000000000000000000000000de0b6b3a7640000",
          "blockHash": "0x7fa9d70a536ed241dc36765dc425cd2a704780884878a4351eb5e72cc44d7a68",
          "blockNumber": "0x12cb6c2",
          "blockTimestamp": "0x67d877cc",
          "transactionHash": "0x5772c70d492defd04a2811dfce4bfbaed2f6f75556823825cfd1a5f5a2103b76",
          "transactionIndex": "0x1",
          "logIndex": "0x1",
          "removed": false
        }
      ],
      "logsBloom": "0x00000000000000000000000000000000000000000000000000000000000000000000000000000000000000000000000000000000000000000000000000000008000000000000000000000009000000000000000000000000000020000000000000000000000000000000000000000000000000000000000000000010000000000000000000000000000000001000000000000000000000000000000000000000000000000000000000000000000000080000000000000000000000000000200000000002000000000000000000000000000000000000000000000040000000000000000000000000000000000000000000000000001080000000000000000000",
      "type": "0x2",
      "transactionHash": "0x5772c70d492defd04a2811dfce4bfbaed2f6f75556823825cfd1a5f5a2103b76",
      "transactionIndex": "0x1",
      "blockHash": "0x7fa9d70a536ed241dc36765dc425cd2a704780884878a4351eb5e72cc44d7a68",
      "blockNumber": "0x12cb6c2",
      "gasUsed": "0x85bb",
      "effectiveGasPrice": "0x5f5e101",
      "from": "0xa3824bffc05178b1ed611117e5b900adcb189b94",
      "to": "0xad543c6af375b1001e3b08202b1eb3e6e608a42f",
      "contractAddress": null
    }
  ],
  "libraries": [],
  "pending": [],
  "returns": {},
  "timestamp": 1742239692,
  "chain": 998,
  "commit": "218ac8823"
}
