{
  "transactions": [
    {
      "hash": "0xa7aebbe462a7adc0acd84485a4a0b416d784d4c0244f7be22269a361d52b8b44",
      "transactionType": "CALL",
      "contractName": null,
      "contractAddress": "0xad543c6af375b1001e3b08202b1eb3e6e608a42f",
      "function": "mint(address,uint256)",
      "arguments": [
        "0xAb3DA9e8Fd49256957b8272f68FF5793F697Bc39",
        "1000000000000000000"
      ],
      "transaction": {
        "from": "0xa3824bffc05178b1ed611117e5b900adcb189b94",
        "to": "0xad543c6af375b1001e3b08202b1eb3e6e608a42f",
        "gas": "0x12510",
        "value": "0x0",
        "input": "0x40c10f19000000000000000000000000ab3da9e8fd49256957b8272f68ff5793f697bc390000000000000000000000000000000000000000000000000de0b6b3a7640000",
        "nonce": "0x1a",
        "chainId": "0x3e6"
      },
      "additionalContracts": [],
      "isFixedGasLimit": false
    },
    {
      "hash": "0xad5c88b669d414252b7ce60829fe83d7d4453f187b98cbeed8e7500c8a031752",
      "transactionType": "CALL",
      "contractName": null,
      "contractAddress": "0xab3da9e8fd49256957b8272f68ff5793f697bc39",
      "function": "sendAssetToHyperCore(address,uint256)",
      "arguments": [
        "0xa3824BFfc05178b1eD611117e5b900adCb189b94",
        "1000000000000000000"
      ],
      "transaction": {
        "from": "0xa3824bffc05178b1ed611117e5b900adcb189b94",
        "to": "0xab3da9e8fd49256957b8272f68ff5793f697bc39",
        "gas": "0xd000",
        "value": "0x0",
        "input": "0xd9acf0ec000000000000000000000000a3824bffc05178b1ed611117e5b900adcb189b940000000000000000000000000000000000000000000000000de0b6b3a7640000",
        "nonce": "0x1b",
        "chainId": "0x3e6"
      },
      "additionalContracts": [],
      "isFixedGasLimit": false
    }
  ],
  "receipts": [
    {
      "status": "0x1",
      "cumulativeGasUsed": "0x1414c",
      "logs": [
        {
          "address": "0xad543c6af375b1001e3b08202b1eb3e6e608a42f",
          "topics": [
            "0xddf252ad1be2c89b69c2b068fc378daa952ba7f163c4a11628f55a4df523b3ef",
            "0x0000000000000000000000000000000000000000000000000000000000000000",
            "0x000000000000000000000000ab3da9e8fd49256957b8272f68ff5793f697bc39"
          ],
          "data": "0x0000000000000000000000000000000000000000000000000de0b6b3a7640000",
          "blockHash": "0xea3cc91bd44201e3b5aa26c55739c861df15b4de4bc7529cec9366ecb41e4abc",
          "blockNumber": "0x12981f4",
          "blockTimestamp": "0x67d20702",
          "transactionHash": "0xa7aebbe462a7adc0acd84485a4a0b416d784d4c0244f7be22269a361d52b8b44",
          "transactionIndex": "0x1",
          "logIndex": "0x1",
          "removed": false
        }
      ],
      "logsBloom": "0x00000000000000000000000000000000000000000000000000000000010000000000000000000000000000000000000000000000000000000000000000000008000000000000000000000008000000000000000000000000000000000000000000000000020000000000000000000800000000000800000000000010000000000000000400000000000000001000000000000000000000000000000000000000000000000000000000000000000000080000000000000000000000000000000000000002000000000000000000000000000000000000000000000000000020000000000000000000000000000000000000000000000000000000000000000000",
      "type": "0x2",
      "transactionHash": "0xa7aebbe462a7adc0acd84485a4a0b416d784d4c0244f7be22269a361d52b8b44",
      "transactionIndex": "0x1",
      "blockHash": "0xea3cc91bd44201e3b5aa26c55739c861df15b4de4bc7529cec9366ecb41e4abc",
      "blockNumber": "0x12981f4",
      "gasUsed": "0xc863",
      "effectiveGasPrice": "0x5f5e101",
      "from": "0xa3824bffc05178b1ed611117e5b900adcb189b94",
      "to": "0xad543c6af375b1001e3b08202b1eb3e6e608a42f",
      "contractAddress": null
    },
    {
      "status": "0x1",
      "cumulativeGasUsed": "0x1d7e3",
      "logs": [
        {
          "address": "0xad543c6af375b1001e3b08202b1eb3e6e608a42f",
          "topics": [
            "0xddf252ad1be2c89b69c2b068fc378daa952ba7f163c4a11628f55a4df523b3ef",
            "0x000000000000000000000000ab3da9e8fd49256957b8272f68ff5793f697bc39",
            "0x00000000000000000000000020000000000000000000000000000000000004cf"
          ],
          "data": "0x0000000000000000000000000000000000000000000000000de0b6b3a7640000",
          "blockHash": "0xea3cc91bd44201e3b5aa26c55739c861df15b4de4bc7529cec9366ecb41e4abc",
          "blockNumber": "0x12981f4",
          "blockTimestamp": "0x67d20702",
          "transactionHash": "0xad5c88b669d414252b7ce60829fe83d7d4453f187b98cbeed8e7500c8a031752",
          "transactionIndex": "0x2",
          "logIndex": "0x2",
          "removed": false
        },
        {
          "address": "0x3333333333333333333333333333333333333333",
          "topics": [
            "0x09f4a089fd53b0b2cd536bc6d609a82b696295ebdcb91c7e216ad11c5223f1d9",
            "0x000000000000000000000000ab3da9e8fd49256957b8272f68ff5793f697bc39",
            "0x000000000000000000000000a3824bffc05178b1ed611117e5b900adcb189b94"
          ],
          "data": "0x00000000000000000000000000000000000000000000000000000000000004cf0000000000000000000000000000000000000000000000000de0b6b3a7640000",
          "blockHash": "0xea3cc91bd44201e3b5aa26c55739c861df15b4de4bc7529cec9366ecb41e4abc",
          "blockNumber": "0x12981f4",
          "blockTimestamp": "0x67d20702",
          "transactionHash": "0xad5c88b669d414252b7ce60829fe83d7d4453f187b98cbeed8e7500c8a031752",
          "transactionIndex": "0x2",
          "logIndex": "0x3",
          "removed": false
        }
      ],
      "logsBloom": "0x00000000020000000000000000000000000000000000000000000000410000000000000000000000000000000000000000000000000000000000000000000408000000000000000000000009000000000000000000000000000020000000100000000000000000000000000000000000000000000800000000000010000000000000000400000000000000001000000000000000000000000000800000000000000000000000000000000000000000080000000000000000000080000000200000000002000000000000000000000000000000000000000000000040000000000000000000000000000000000000000000000000001080000000000000000000",
      "type": "0x2",
      "transactionHash": "0xad5c88b669d414252b7ce60829fe83d7d4453f187b98cbeed8e7500c8a031752",
      "transactionIndex": "0x2",
      "blockHash": "0xea3cc91bd44201e3b5aa26c55739c861df15b4de4bc7529cec9366ecb41e4abc",
      "blockNumber": "0x12981f4",
      "gasUsed": "0x9697",
      "effectiveGasPrice": "0x5f5e101",
      "from": "0xa3824bffc05178b1ed611117e5b900adcb189b94",
      "to": "0xab3da9e8fd49256957b8272f68ff5793f697bc39",
      "contractAddress": null
    }
  ],
  "libraries": [],
  "pending": [],
  "returns": {},
  "timestamp": 1741817603,
  "chain": 998,
  "commit": "218ac8823"
}
