{
  "transactions": [
    {
      "hash": "0xa5f1501da35de8769a48ced840418b81641d1b9e991d4e89ae7d110e808d4be9",
      "transactionType": "CALL",
      "contractName": null,
      "contractAddress": "0xad543c6af375b1001e3b08202b1eb3e6e608a42f",
      "function": "mint(address,uint256)",
      "arguments": [
        "0xACc732E49f38002aF5F29E9f042494e535207350",
        "10000000000000000"
      ],
      "transaction": {
        "from": "0xa3824bffc05178b1ed611117e5b900adcb189b94",
        "to": "0xad543c6af375b1001e3b08202b1eb3e6e608a42f",
        "gas": "0xb863",
        "value": "0x0",
        "input": "0x40c10f19000000000000000000000000acc732e49f38002af5f29e9f042494e535207350000000000000000000000000000000000000000000000000002386f26fc10000",
        "nonce": "0x6e",
        "chainId": "0x3e6"
      },
      "additionalContracts": [],
      "isFixedGasLimit": false
    },
    {
      "hash": "0xf5bbc9f710e9bf4d47c8c7161cda7c3fc73a041c02cdacd51d97614972fadf79",
      "transactionType": "CALL",
      "contractName": null,
      "contractAddress": "0xad543c6af375b1001e3b08202b1eb3e6e608a42f",
      "function": "transfer(address,uint256)",
      "arguments": [
        "0x20000000000000000000000000000000000004cF",
        "10000000000"
      ],
      "transaction": {
        "from": "0xa3824bffc05178b1ed611117e5b900adcb189b94",
        "to": "0xad543c6af375b1001e3b08202b1eb3e6e608a42f",
        "gas": "0xc371",
        "value": "0x0",
        "input": "0xa9059cbb00000000000000000000000020000000000000000000000000000000000004cf00000000000000000000000000000000000000000000000000000002540be400",
        "nonce": "0x6f",
        "chainId": "0x3e6"
      },
      "additionalContracts": [],
      "isFixedGasLimit": false
    }
  ],
  "receipts": [
    {
      "status": "0x1",
      "cumulativeGasUsed": "0x857f",
      "logs": [
        {
          "address": "0xad543c6af375b1001e3b08202b1eb3e6e608a42f",
          "topics": [
            "0xddf252ad1be2c89b69c2b068fc378daa952ba7f163c4a11628f55a4df523b3ef",
            "0x0000000000000000000000000000000000000000000000000000000000000000",
            "0x000000000000000000000000acc732e49f38002af5f29e9f042494e535207350"
          ],
          "data": "0x000000000000000000000000000000000000000000000000002386f26fc10000",
          "blockHash": "0xbaf3c0c733bd1dce0034ce586ef308269c4592c734f7ee3a63199d38ec3f5e66",
          "blockNumber": "0x12cb5a4",
          "blockTimestamp": "0x67d8759e",
          "transactionHash": "0xa5f1501da35de8769a48ced840418b81641d1b9e991d4e89ae7d110e808d4be9",
          "transactionIndex": "0x0",
          "logIndex": "0x0",
          "removed": false
        }
      ],
      "logsBloom": "0x00000000000000000000000000000000000000000000000000002000000000000000000000000000000000000000000000000000000000000000000000000008000000000000000000000008000000000000000000000000000000000000000000000000020000000000000000000800000000000000000000000010000000000000000000000000000000001000000000000000000000000000000000000000000000000000000000000000000000080000000000000000000000000000000000000002000000000000000000000000000000000000000000000000000020002000000000000000000000020000000000000000000000000000000000000000",
      "type": "0x2",
      "transactionHash": "0xa5f1501da35de8769a48ced840418b81641d1b9e991d4e89ae7d110e808d4be9",
      "transactionIndex": "0x0",
      "blockHash": "0xbaf3c0c733bd1dce0034ce586ef308269c4592c734f7ee3a63199d38ec3f5e66",
      "blockNumber": "0x12cb5a4",
      "gasUsed": "0x857f",
      "effectiveGasPrice": "0x5f5e101",
      "from": "0xa3824bffc05178b1ed611117e5b900adcb189b94",
      "to": "0xad543c6af375b1001e3b08202b1eb3e6e608a42f",
      "contractAddress": null
    },
    {
      "status": "0x1",
      "cumulativeGasUsed": "0x10b22",
      "logs": [
        {
          "address": "0xad543c6af375b1001e3b08202b1eb3e6e608a42f",
          "topics": [
            "0xddf252ad1be2c89b69c2b068fc378daa952ba7f163c4a11628f55a4df523b3ef",
            "0x000000000000000000000000a3824bffc05178b1ed611117e5b900adcb189b94",
            "0x00000000000000000000000020000000000000000000000000000000000004cf"
          ],
          "data": "0x00000000000000000000000000000000000000000000000000000002540be400",
          "blockHash": "0xbaf3c0c733bd1dce0034ce586ef308269c4592c734f7ee3a63199d38ec3f5e66",
          "blockNumber": "0x12cb5a4",
          "blockTimestamp": "0x67d8759e",
          "transactionHash": "0xf5bbc9f710e9bf4d47c8c7161cda7c3fc73a041c02cdacd51d97614972fadf79",
          "transactionIndex": "0x1",
          "logIndex": "0x1",
          "removed": false
        }
      ],
      "logsBloom": "0x00000000000000000000000000000000000000000000000000000000000000000000000000000000000000000000000000000000000000000000000000000008000000000000000000000009000000000000000000000000000020000000000000000000000000000000000000000000000000000000000000000010000000000000000000000000000000001000000000000000000000000000000000000000000000000000000000000000000000080000000000000000000000000000200000000002000000000000000000000000000000000000000000000040000000000000000000000000000000000000000000000000001080000000000000000000",
      "type": "0x2",
      "transactionHash": "0xf5bbc9f710e9bf4d47c8c7161cda7c3fc73a041c02cdacd51d97614972fadf79",
      "transactionIndex": "0x1",
      "blockHash": "0xbaf3c0c733bd1dce0034ce586ef308269c4592c734f7ee3a63199d38ec3f5e66",
      "blockNumber": "0x12cb5a4",
      "gasUsed": "0x85a3",
      "effectiveGasPrice": "0x5f5e101",
      "from": "0xa3824bffc05178b1ed611117e5b900adcb189b94",
      "to": "0xad543c6af375b1001e3b08202b1eb3e6e608a42f",
      "contractAddress": null
    }
  ],
  "libraries": [],
  "pending": [],
  "returns": {},
  "timestamp": 1742239135,
  "chain": 998,
  "commit": "218ac8823"
}
