{
  "transactions": [
    {
      "hash": "0x1f10520cc40094015f3ce1643cb514a0de749c7960353a7536ca53c53be4e57c",
      "transactionType": "CALL",
      "contractName": null,
      "contractAddress": "0xad543c6af375b1001e3b08202b1eb3e6e608a42f",
      "function": "mint(address,uint256)",
      "arguments": [
        "0xAb3DA9e8Fd49256957b8272f68FF5793F697Bc39",
        "1000000000000"
      ],
      "transaction": {
        "from": "0xa3824bffc05178b1ed611117e5b900adcb189b94",
        "to": "0xad543c6af375b1001e3b08202b1eb3e6e608a42f",
        "gas": "0x124ed",
        "value": "0x0",
        "input": "0x40c10f19000000000000000000000000ab3da9e8fd49256957b8272f68ff5793f697bc39000000000000000000000000000000000000000000000000000000e8d4a51000",
        "nonce": "0x18",
        "chainId": "0x3e6"
      },
      "additionalContracts": [],
      "isFixedGasLimit": false
    },
    {
      "hash": "0x0513aca9fdab23b94c62b0ebad9cd51edbf0189b73b2a989475ddeb22342638c",
      "transactionType": "CALL",
      "contractName": null,
      "contractAddress": "0xab3da9e8fd49256957b8272f68ff5793f697bc39",
      "function": "sendAssetToHyperCore(address,uint256)",
      "arguments": [
        "0xa3824BFfc05178b1eD611117e5b900adCb189b94",
        "1000000000000"
      ],
      "transaction": {
        "from": "0xa3824bffc05178b1ed611117e5b900adcb189b94",
        "to": "0xab3da9e8fd49256957b8272f68ff5793f697bc39",
        "gas": "0xcfde",
        "value": "0x0",
        "input": "0xd9acf0ec000000000000000000000000a3824bffc05178b1ed611117e5b900adcb189b94000000000000000000000000000000000000000000000000000000e8d4a51000",
        "nonce": "0x19",
        "chainId": "0x3e6"
      },
      "additionalContracts": [],
      "isFixedGasLimit": false
    }
  ],
  "receipts": [
    {
      "status": "0x1",
      "cumulativeGasUsed": "0x14134",
      "logs": [
        {
          "address": "0xad543c6af375b1001e3b08202b1eb3e6e608a42f",
          "topics": [
            "0xddf252ad1be2c89b69c2b068fc378daa952ba7f163c4a11628f55a4df523b3ef",
            "0x0000000000000000000000000000000000000000000000000000000000000000",
            "0x000000000000000000000000ab3da9e8fd49256957b8272f68ff5793f697bc39"
          ],
          "data": "0x000000000000000000000000000000000000000000000000000000e8d4a51000",
          "blockHash": "0x65e685c87479f4cfb2d0f17026d10986988967d4b60da4c3621806dd687a814c",
          "blockNumber": "0x12981d7",
          "blockTimestamp": "0x67d206ca",
          "transactionHash": "0x1f10520cc40094015f3ce1643cb514a0de749c7960353a7536ca53c53be4e57c",
          "transactionIndex": "0x1",
          "logIndex": "0x1",
          "removed": false
        }
      ],
      "logsBloom": "0x00000000000000000000000000000000000000000000000000000000010000000000000000000000000000000000000000000000000000000000000000000008000000000000000000000008000000000000000000000000000000000000000000000000020000000000000000000800000000000800000000000010000000000000000400000000000000001000000000000000000000000000000000000000000000000000000000000000000000080000000000000000000000000000000000000002000000000000000000000000000000000000000000000000000020000000000000000000000000000000000000000000000000000000000000000000",
      "type": "0x2",
      "transactionHash": "0x1f10520cc40094015f3ce1643cb514a0de749c7960353a7536ca53c53be4e57c",
      "transactionIndex": "0x1",
      "blockHash": "0x65e685c87479f4cfb2d0f17026d10986988967d4b60da4c3621806dd687a814c",
      "blockNumber": "0x12981d7",
      "gasUsed": "0xc84b",
      "effectiveGasPrice": "0x5f5e101",
      "from": "0xa3824bffc05178b1ed611117e5b900adcb189b94",
      "to": "0xad543c6af375b1001e3b08202b1eb3e6e608a42f",
      "contractAddress": null
    },
    {
      "status": "0x1",
      "cumulativeGasUsed": "0x1d7b3",
      "logs": [
        {
          "address": "0xad543c6af375b1001e3b08202b1eb3e6e608a42f",
          "topics": [
            "0xddf252ad1be2c89b69c2b068fc378daa952ba7f163c4a11628f55a4df523b3ef",
            "0x000000000000000000000000ab3da9e8fd49256957b8272f68ff5793f697bc39",
            "0x00000000000000000000000020000000000000000000000000000000000004cf"
          ],
          "data": "0x000000000000000000000000000000000000000000000000000000e8d4a51000",
          "blockHash": "0x65e685c87479f4cfb2d0f17026d10986988967d4b60da4c3621806dd687a814c",
          "blockNumber": "0x12981d7",
          "blockTimestamp": "0x67d206ca",
          "transactionHash": "0x0513aca9fdab23b94c62b0ebad9cd51edbf0189b73b2a989475ddeb22342638c",
          "transactionIndex": "0x2",
          "logIndex": "0x2",
          "removed": false
        },
        {
          "address": "0x3333333333333333333333333333333333333333",
          "topics": [
            "0x09f4a089fd53b0b2cd536bc6d609a82b696295ebdcb91c7e216ad11c5223f1d9",
            "0x000000000000000000000000ab3da9e8fd49256957b8272f68ff5793f697bc39",
            "0x000000000000000000000000a3824bffc05178b1ed611117e5b900adcb189b94"
          ],
          "data": "0x00000000000000000000000000000000000000000000000000000000000004cf000000000000000000000000000000000000000000000000000000e8d4a51000",
          "blockHash": "0x65e685c87479f4cfb2d0f17026d10986988967d4b60da4c3621806dd687a814c",
          "blockNumber": "0x12981d7",
          "blockTimestamp": "0x67d206ca",
          "transactionHash": "0x0513aca9fdab23b94c62b0ebad9cd51edbf0189b73b2a989475ddeb22342638c",
          "transactionIndex": "0x2",
          "logIndex": "0x3",
          "removed": false
        }
      ],
      "logsBloom": "0x00000000020000000000000000000000000000000000000000000000410000000000000000000000000000000000000000000000000000000000000000000408000000000000000000000009000000000000000000000000000020000000100000000000000000000000000000000000000000000800000000000010000000000000000400000000000000001000000000000000000000000000800000000000000000000000000000000000000000080000000000000000000080000000200000000002000000000000000000000000000000000000000000000040000000000000000000000000000000000000000000000000001080000000000000000000",
      "type": "0x2",
      "transactionHash": "0x0513aca9fdab23b94c62b0ebad9cd51edbf0189b73b2a989475ddeb22342638c",
      "transactionIndex": "0x2",
      "blockHash": "0x65e685c87479f4cfb2d0f17026d10986988967d4b60da4c3621806dd687a814c",
      "blockNumber": "0x12981d7",
      "gasUsed": "0x967f",
      "effectiveGasPrice": "0x5f5e101",
      "from": "0xa3824bffc05178b1ed611117e5b900adcb189b94",
      "to": "0xab3da9e8fd49256957b8272f68ff5793f697bc39",
      "contractAddress": null
    }
  ],
  "libraries": [],
  "pending": [],
  "returns": {},
  "timestamp": 1741817546,
  "chain": 998,
  "commit": "218ac8823"
}
