{
  "transactions": [
    {
      "hash": "0x38867f2e712178f99d42b8e90f0758e275b642c905f151822f8d74919900bed9",
      "transactionType": "CALL",
      "contractName": null,
      "contractAddress": "0xad543c6af375b1001e3b08202b1eb3e6e608a42f",
      "function": "mint(address,uint256)",
      "arguments": [
        "0xACc732E49f38002aF5F29E9f042494e535207350",
        "1000000000000000000"
      ],
      "transaction": {
        "from": "0xa3824bffc05178b1ed611117e5b900adcb189b94",
        "to": "0xad543c6af375b1001e3b08202b1eb3e6e608a42f",
        "gas": "0xc34e",
        "value": "0x0",
        "input": "0x40c10f19000000000000000000000000acc732e49f38002af5f29e9f042494e5352073500000000000000000000000000000000000000000000000000de0b6b3a7640000",
        "nonce": "0x5c",
        "chainId": "0x3e6"
      },
      "additionalContracts": [],
      "isFixedGasLimit": false
    },
    {
      "hash": "0xb6fc5d78b67c0ebf2546ade4e07eead77ecd56b3ec42fba9a228ad91acf30c66",
      "transactionType": "CALL",
      "contractName": null,
      "contractAddress": "0xacc732e49f38002af5f29e9f042494e535207350",
      "function": "sendAssetToHyperCore(address,uint256)",
      "arguments": [
        "0xa3824BFfc05178b1eD611117e5b900adCb189b94",
        "1000000000000"
      ],
      "transaction": {
        "from": "0xa3824bffc05178b1ed611117e5b900adcb189b94",
        "to": "0xacc732e49f38002af5f29e9f042494e535207350",
        "gas": "0xe960",
        "value": "0x0",
        "input": "0xd9acf0ec000000000000000000000000a3824bffc05178b1ed611117e5b900adcb189b94000000000000000000000000000000000000000000000000000000e8d4a51000",
        "nonce": "0x5d",
        "chainId": "0x3e6"
      },
      "additionalContracts": [],
      "isFixedGasLimit": false
    }
  ],
  "receipts": [
    {
      "status": "0x1",
      "cumulativeGasUsed": "0x858b",
      "logs": [
        {
          "address": "0xad543c6af375b1001e3b08202b1eb3e6e608a42f",
          "topics": [
            "0xddf252ad1be2c89b69c2b068fc378daa952ba7f163c4a11628f55a4df523b3ef",
            "0x0000000000000000000000000000000000000000000000000000000000000000",
            "0x000000000000000000000000acc732e49f38002af5f29e9f042494e535207350"
          ],
          "data": "0x0000000000000000000000000000000000000000000000000de0b6b3a7640000",
          "blockHash": "0x36566b4c19dbd25446001d1afd4264f03da0f63ac4e2136475048d3edbfa28c6",
          "blockNumber": "0x12b3d94",
          "blockTimestamp": "0x67d59470",
          "transactionHash": "0x38867f2e712178f99d42b8e90f0758e275b642c905f151822f8d74919900bed9",
          "transactionIndex": "0x0",
          "logIndex": "0x0",
          "removed": false
        }
      ],
      "logsBloom": "0x00000000000000000000000000000000000000000000000000002000000000000000000000000000000000000000000000000000000000000000000000000008000000000000000000000008000000000000000000000000000000000000000000000000020000000000000000000800000000000000000000000010000000000000000000000000000000001000000000000000000000000000000000000000000000000000000000000000000000080000000000000000000000000000000000000002000000000000000000000000000000000000000000000000000020002000000000000000000000020000000000000000000000000000000000000000",
      "type": "0x2",
      "transactionHash": "0x38867f2e712178f99d42b8e90f0758e275b642c905f151822f8d74919900bed9",
      "transactionIndex": "0x0",
      "blockHash": "0x36566b4c19dbd25446001d1afd4264f03da0f63ac4e2136475048d3edbfa28c6",
      "blockNumber": "0x12b3d94",
      "gasUsed": "0x858b",
      "effectiveGasPrice": "0x5f5e101",
      "from": "0xa3824bffc05178b1ed611117e5b900adcb189b94",
      "to": "0xad543c6af375b1001e3b08202b1eb3e6e608a42f",
      "contractAddress": null
    },
    {
      "status": "0x1",
      "cumulativeGasUsed": "0x12e81",
      "logs": [
        {
          "address": "0xad543c6af375b1001e3b08202b1eb3e6e608a42f",
          "topics": [
            "0xddf252ad1be2c89b69c2b068fc378daa952ba7f163c4a11628f55a4df523b3ef",
            "0x000000000000000000000000acc732e49f38002af5f29e9f042494e535207350",
            "0x00000000000000000000000020000000000000000000000000000000000004cf"
          ],
          "data": "0x000000000000000000000000000000000000000000000000000000e8d4a51000",
          "blockHash": "0x36566b4c19dbd25446001d1afd4264f03da0f63ac4e2136475048d3edbfa28c6",
          "blockNumber": "0x12b3d94",
          "blockTimestamp": "0x67d59470",
          "transactionHash": "0xb6fc5d78b67c0ebf2546ade4e07eead77ecd56b3ec42fba9a228ad91acf30c66",
          "transactionIndex": "0x1",
          "logIndex": "0x1",
          "removed": false
        },
        {
          "address": "0x3333333333333333333333333333333333333333",
          "topics": [
            "0x09f4a089fd53b0b2cd536bc6d609a82b696295ebdcb91c7e216ad11c5223f1d9",
            "0x000000000000000000000000acc732e49f38002af5f29e9f042494e535207350",
            "0x000000000000000000000000a3824bffc05178b1ed611117e5b900adcb189b94"
          ],
          "data": "0x00000000000000000000000000000000000000000000000000000000000004cf000000000000000000000000000000000000000000000000000000e8d4a51000",
          "blockHash": "0x36566b4c19dbd25446001d1afd4264f03da0f63ac4e2136475048d3edbfa28c6",
          "blockNumber": "0x12b3d94",
          "blockTimestamp": "0x67d59470",
          "transactionHash": "0xb6fc5d78b67c0ebf2546ade4e07eead77ecd56b3ec42fba9a228ad91acf30c66",
          "transactionIndex": "0x1",
          "logIndex": "0x2",
          "removed": false
        }
      ],
      "logsBloom": "0x00000000020000000000000000000000000000000000000000002000400000000000000000000000000000000000000000000000000000000000000000000408000000000000000000000009000000000000000000000000000020000000100000000000000000000000000000000000000000000000000000000010000000000000000000000000000000001000000000000000000000000000800000000000000000000000000000000000000000080000000000000000000080000000200000000002000000000000000000000000000000000000000000000040000000002000000000000000000000020000000000000000001080000000000000000000",
      "type": "0x2",
      "transactionHash": "0xb6fc5d78b67c0ebf2546ade4e07eead77ecd56b3ec42fba9a228ad91acf30c66",
      "transactionIndex": "0x1",
      "blockHash": "0x36566b4c19dbd25446001d1afd4264f03da0f63ac4e2136475048d3edbfa28c6",
      "blockNumber": "0x12b3d94",
      "gasUsed": "0xa8f6",
      "effectiveGasPrice": "0x5f5e101",
      "from": "0xa3824bffc05178b1ed611117e5b900adcb189b94",
      "to": "0xacc732e49f38002af5f29e9f042494e535207350",
      "contractAddress": null
    }
  ],
  "libraries": [],
  "pending": [],
  "returns": {},
  "timestamp": 1742050417,
  "chain": 998,
  "commit": "218ac8823"
}
