{
  "transactions": [
    {
      "hash": "0xa366bd2e8e24ca66835d9376a52570265bacbfdd3c484cdebe1be2688e30ec16",
      "transactionType": "CALL",
      "contractName": null,
      "contractAddress": "0xad543c6af375b1001e3b08202b1eb3e6e608a42f",
      "function": "mint(address,uint256)",
      "arguments": [
        "0xACc732E49f38002aF5F29E9f042494e535207350",
        "1000000000000000000"
      ],
      "transaction": {
        "from": "0xa3824bffc05178b1ed611117e5b900adcb189b94",
        "to": "0xad543c6af375b1001e3b08202b1eb3e6e608a42f",
        "gas": "0xc34e",
        "value": "0x0",
        "input": "0x40c10f19000000000000000000000000acc732e49f38002af5f29e9f042494e5352073500000000000000000000000000000000000000000000000000de0b6b3a7640000",
        "nonce": "0x74",
        "chainId": "0x3e6"
      },
      "additionalContracts": [],
      "isFixedGasLimit": false
    },
    {
      "hash": "0xe644f946108bd2abc46c6f205d27b77c848532d6cde53a382fa55b97dd298119",
      "transactionType": "CALL",
      "contractName": null,
      "contractAddress": "0x3333333333333333333333333333333333333333",
      "function": "sendSpot(address,uint64,uint64)",
      "arguments": [
        "0xACc732E49f38002aF5F29E9f042494e535207350",
        "1231",
        "1000000000000"
      ],
      "transaction": {
        "from": "0xa3824bffc05178b1ed611117e5b900adcb189b94",
        "to": "0x3333333333333333333333333333333333333333",
        "gas": "0x8afe",
        "value": "0x0",
        "input": "0x0b0ac0ab000000000000000000000000acc732e49f38002af5f29e9f042494e53520735000000000000000000000000000000000000000000000000000000000000004cf000000000000000000000000000000000000000000000000000000e8d4a51000",
        "nonce": "0x75",
        "chainId": "0x3e6"
      },
      "additionalContracts": [],
      "isFixedGasLimit": false
    }
  ],
  "receipts": [
    {
      "status": "0x1",
      "cumulativeGasUsed": "0x858b",
      "logs": [
        {
          "address": "0xad543c6af375b1001e3b08202b1eb3e6e608a42f",
          "topics": [
            "0xddf252ad1be2c89b69c2b068fc378daa952ba7f163c4a11628f55a4df523b3ef",
            "0x0000000000000000000000000000000000000000000000000000000000000000",
            "0x000000000000000000000000acc732e49f38002af5f29e9f042494e535207350"
          ],
          "data": "0x0000000000000000000000000000000000000000000000000de0b6b3a7640000",
          "blockHash": "0x6dbee7cd1dfb700687ad527fbc24622711617d69154c208d1c80a48037fd30e0",
          "blockNumber": "0x12cb66a",
          "blockTimestamp": "0x67d8771c",
          "transactionHash": "0xa366bd2e8e24ca66835d9376a52570265bacbfdd3c484cdebe1be2688e30ec16",
          "transactionIndex": "0x0",
          "logIndex": "0x0",
          "removed": false
        }
      ],
      "logsBloom": "0x00000000000000000000000000000000000000000000000000002000000000000000000000000000000000000000000000000000000000000000000000000008000000000000000000000008000000000000000000000000000000000000000000000000020000000000000000000800000000000000000000000010000000000000000000000000000000001000000000000000000000000000000000000000000000000000000000000000000000080000000000000000000000000000000000000002000000000000000000000000000000000000000000000000000020002000000000000000000000020000000000000000000000000000000000000000",
      "type": "0x2",
      "transactionHash": "0xa366bd2e8e24ca66835d9376a52570265bacbfdd3c484cdebe1be2688e30ec16",
      "transactionIndex": "0x0",
      "blockHash": "0x6dbee7cd1dfb700687ad527fbc24622711617d69154c208d1c80a48037fd30e0",
      "blockNumber": "0x12cb66a",
      "gasUsed": "0x858b",
      "effectiveGasPrice": "0x5f5e101",
      "from": "0xa3824bffc05178b1ed611117e5b900adcb189b94",
      "to": "0xad543c6af375b1001e3b08202b1eb3e6e608a42f",
      "contractAddress": null
    },
    {
      "status": "0x1",
      "cumulativeGasUsed": "0xe495",
      "logs": [
        {
          "address": "0x3333333333333333333333333333333333333333",
          "topics": [
            "0x09f4a089fd53b0b2cd536bc6d609a82b696295ebdcb91c7e216ad11c5223f1d9",
            "0x000000000000000000000000a3824bffc05178b1ed611117e5b900adcb189b94",
            "0x000000000000000000000000acc732e49f38002af5f29e9f042494e535207350"
          ],
          "data": "0x00000000000000000000000000000000000000000000000000000000000004cf000000000000000000000000000000000000000000000000000000e8d4a51000",
          "blockHash": "0x6dbee7cd1dfb700687ad527fbc24622711617d69154c208d1c80a48037fd30e0",
          "blockNumber": "0x12cb66a",
          "blockTimestamp": "0x67d8771c",
          "transactionHash": "0xe644f946108bd2abc46c6f205d27b77c848532d6cde53a382fa55b97dd298119",
          "transactionIndex": "0x1",
          "logIndex": "0x1",
          "removed": false
        }
      ],
      "logsBloom": "0x00000000020000000000000000000000000000000000000000002000400000000000000000000000000000000000000000000000000000000000000000000400000000000000000000000000000000000000000000000000000020000000100000000000000000000000000000000000000000000000000000000000000000000000000000000000000000000000000000000000000000000000800000000000000000000000000000000000000000000000000000000000000080000000000000000000000000000000000000000000000000000000000000000040000000002000000000000000000000020000000000000000000080000000000000000000",
      "type": "0x2",
      "transactionHash": "0xe644f946108bd2abc46c6f205d27b77c848532d6cde53a382fa55b97dd298119",
      "transactionIndex": "0x1",
      "blockHash": "0x6dbee7cd1dfb700687ad527fbc24622711617d69154c208d1c80a48037fd30e0",
      "blockNumber": "0x12cb66a",
      "gasUsed": "0x5f0a",
      "effectiveGasPrice": "0x5f5e101",
      "from": "0xa3824bffc05178b1ed611117e5b900adcb189b94",
      "to": "0x3333333333333333333333333333333333333333",
      "contractAddress": null
    }
  ],
  "libraries": [],
  "pending": [],
  "returns": {},
  "timestamp": 1742239517,
  "chain": 998,
  "commit": "218ac8823"
}
