{
  "transactions": [
    {
      "hash": "0xe6340876f08d0b8ab735af7fd7296f76176f9165b379620b518e379192e39ff3",
      "transactionType": "CALL",
      "contractName": null,
      "contractAddress": "0xad543c6af375b1001e3b08202b1eb3e6e608a42f",
      "function": "mint(address,uint256)",
      "arguments": [
        "0xACc732E49f38002aF5F29E9f042494e535207350",
        "1000000000000000000"
      ],
      "transaction": {
        "from": "0xa3824bffc05178b1ed611117e5b900adcb189b94",
        "to": "0xad543c6af375b1001e3b08202b1eb3e6e608a42f",
        "gas": "0xc34e",
        "value": "0x0",
        "input": "0x40c10f19000000000000000000000000acc732e49f38002af5f29e9f042494e5352073500000000000000000000000000000000000000000000000000de0b6b3a7640000",
        "nonce": "0x72",
        "chainId": "0x3e6"
      },
      "additionalContracts": [],
      "isFixedGasLimit": false
    },
    {
      "hash": "0x4c83a637c50dc61c761ff6aa33a3f73140168c6e255b061c9ae24e7d4892bf5e",
      "transactionType": "CALL",
      "contractName": null,
      "contractAddress": "0xad543c6af375b1001e3b08202b1eb3e6e608a42f",
      "function": "transfer(address,uint256)",
      "arguments": [
        "0x20000000000000000000000000000000000004cF",
        "1000000000000000000"
      ],
      "transaction": {
        "from": "0xa3824bffc05178b1ed611117e5b900adcb189b94",
        "to": "0xad543c6af375b1001e3b08202b1eb3e6e608a42f",
        "gas": "0xc394",
        "value": "0x0",
        "input": "0xa9059cbb00000000000000000000000020000000000000000000000000000000000004cf0000000000000000000000000000000000000000000000000de0b6b3a7640000",
        "nonce": "0x73",
        "chainId": "0x3e6"
      },
      "additionalContracts": [],
      "isFixedGasLimit": false
    }
  ],
  "receipts": [
    {
      "status": "0x1",
      "cumulativeGasUsed": "0x858b",
      "logs": [
        {
          "address": "0xad543c6af375b1001e3b08202b1eb3e6e608a42f",
          "topics": [
            "0xddf252ad1be2c89b69c2b068fc378daa952ba7f163c4a11628f55a4df523b3ef",
            "0x0000000000000000000000000000000000000000000000000000000000000000",
            "0x000000000000000000000000acc732e49f38002af5f29e9f042494e535207350"
          ],
          "data": "0x0000000000000000000000000000000000000000000000000de0b6b3a7640000",
          "blockHash": "0x9a71d40c9c20a81b1c27eaae91b88499cad9dc055bb0645cba1d6b23969579e1",
          "blockNumber": "0x12cb5df",
          "blockTimestamp": "0x67d87610",
          "transactionHash": "0xe6340876f08d0b8ab735af7fd7296f76176f9165b379620b518e379192e39ff3",
          "transactionIndex": "0x0",
          "logIndex": "0x0",
          "removed": false
        }
      ],
      "logsBloom": "0x00000000000000000000000000000000000000000000000000002000000000000000000000000000000000000000000000000000000000000000000000000008000000000000000000000008000000000000000000000000000000000000000000000000020000000000000000000800000000000000000000000010000000000000000000000000000000001000000000000000000000000000000000000000000000000000000000000000000000080000000000000000000000000000000000000002000000000000000000000000000000000000000000000000000020002000000000000000000000020000000000000000000000000000000000000000",
      "type": "0x2",
      "transactionHash": "0xe6340876f08d0b8ab735af7fd7296f76176f9165b379620b518e379192e39ff3",
      "transactionIndex": "0x0",
      "blockHash": "0x9a71d40c9c20a81b1c27eaae91b88499cad9dc055bb0645cba1d6b23969579e1",
      "blockNumber": "0x12cb5df",
      "gasUsed": "0x858b",
      "effectiveGasPrice": "0x5f5e101",
      "from": "0xa3824bffc05178b1ed611117e5b900adcb189b94",
      "to": "0xad543c6af375b1001e3b08202b1eb3e6e608a42f",
      "contractAddress": null
    },
    {
      "status": "0x1",
      "cumulativeGasUsed": "0x10b46",
      "logs": [
        {
          "address": "0xad543c6af375b1001e3b08202b1eb3e6e608a42f",
          "topics": [
            "0xddf252ad1be2c89b69c2b068fc378daa952ba7f163c4a11628f55a4df523b3ef",
            "0x000000000000000000000000a3824bffc05178b1ed611117e5b900adcb189b94",
            "0x00000000000000000000000020000000000000000000000000000000000004cf"
          ],
          "data": "0x0000000000000000000000000000000000000000000000000de0b6b3a7640000",
          "blockHash": "0x9a71d40c9c20a81b1c27eaae91b88499cad9dc055bb0645cba1d6b23969579e1",
          "blockNumber": "0x12cb5df",
          "blockTimestamp": "0x67d87610",
          "transactionHash": "0x4c83a637c50dc61c761ff6aa33a3f73140168c6e255b061c9ae24e7d4892bf5e",
          "transactionIndex": "0x1",
          "logIndex": "0x1",
          "removed": false
        }
      ],
      "logsBloom": "0x00000000000000000000000000000000000000000000000000000000000000000000000000000000000000000000000000000000000000000000000000000008000000000000000000000009000000000000000000000000000020000000000000000000000000000000000000000000000000000000000000000010000000000000000000000000000000001000000000000000000000000000000000000000000000000000000000000000000000080000000000000000000000000000200000000002000000000000000000000000000000000000000000000040000000000000000000000000000000000000000000000000001080000000000000000000",
      "type": "0x2",
      "transactionHash": "0x4c83a637c50dc61c761ff6aa33a3f73140168c6e255b061c9ae24e7d4892bf5e",
      "transactionIndex": "0x1",
      "blockHash": "0x9a71d40c9c20a81b1c27eaae91b88499cad9dc055bb0645cba1d6b23969579e1",
      "blockNumber": "0x12cb5df",
      "gasUsed": "0x85bb",
      "effectiveGasPrice": "0x5f5e101",
      "from": "0xa3824bffc05178b1ed611117e5b900adcb189b94",
      "to": "0xad543c6af375b1001e3b08202b1eb3e6e608a42f",
      "contractAddress": null
    }
  ],
  "libraries": [],
  "pending": [],
  "returns": {},
  "timestamp": 1742239249,
  "chain": 998,
  "commit": "218ac8823"
}
