{
  "transactions": [
    {
      "hash": "0xb4691c7fac5dd8a619997ff8b2a46a6b75e3092b1aa94e96a46aea18e05ac4fa",
      "transactionType": "CALL",
      "contractName": null,
      "contractAddress": "0xad543c6af375b1001e3b08202b1eb3e6e608a42f",
      "function": "mint(address,uint256)",
      "arguments": [
        "0xAb3DA9e8Fd49256957b8272f68FF5793F697Bc39",
        "1000000000000"
      ],
      "transaction": {
        "from": "0xa3824bffc05178b1ed611117e5b900adcb189b94",
        "to": "0xad543c6af375b1001e3b08202b1eb3e6e608a42f",
        "gas": "0xb863",
        "value": "0x0",
        "input": "0x40c10f19000000000000000000000000ab3da9e8fd49256957b8272f68ff5793f697bc39000000000000000000000000000000000000000000000000000000e8d4a51000",
        "nonce": "0x2a",
        "chainId": "0x3e6"
      },
      "additionalContracts": [],
      "isFixedGasLimit": false
    },
    {
      "hash": "0x5833096951a277bef37966e6cb484957c0bdd24a7e85726085328d12b4ff6ce4",
      "transactionType": "CALL",
      "contractName": null,
      "contractAddress": "0xab3da9e8fd49256957b8272f68ff5793f697bc39",
      "function": "sendAssetToHyperCore(address,uint256)",
      "arguments": [
        "0xa3824BFfc05178b1eD611117e5b900adCb189b94",
        "1000000000000"
      ],
      "transaction": {
        "from": "0xa3824bffc05178b1ed611117e5b900adcb189b94",
        "to": "0xab3da9e8fd49256957b8272f68ff5793f697bc39",
        "gas": "0xe9c4",
        "value": "0x0",
        "input": "0xd9acf0ec000000000000000000000000a3824bffc05178b1ed611117e5b900adcb189b94000000000000000000000000000000000000000000000000000000e8d4a51000",
        "nonce": "0x2b",
        "chainId": "0x3e6"
      },
      "additionalContracts": [],
      "isFixedGasLimit": false
    }
  ],
  "receipts": [
    {
      "status": "0x1",
      "cumulativeGasUsed": "0xfe68",
      "logs": [
        {
          "address": "0xad543c6af375b1001e3b08202b1eb3e6e608a42f",
          "topics": [
            "0xddf252ad1be2c89b69c2b068fc378daa952ba7f163c4a11628f55a4df523b3ef",
            "0x0000000000000000000000000000000000000000000000000000000000000000",
            "0x000000000000000000000000ab3da9e8fd49256957b8272f68ff5793f697bc39"
          ],
          "data": "0x000000000000000000000000000000000000000000000000000000e8d4a51000",
          "blockHash": "0xf7a8b561e3efb428e4e79bdb0068b07488066d7455fd193cdebb9b1182f1db4c",
          "blockNumber": "0x129858e",
          "blockTimestamp": "0x67d20dfe",
          "transactionHash": "0xb4691c7fac5dd8a619997ff8b2a46a6b75e3092b1aa94e96a46aea18e05ac4fa",
          "transactionIndex": "0x1",
          "logIndex": "0x1",
          "removed": false
        }
      ],
      "logsBloom": "0x00000000000000000000000000000000000000000000000000000000010000000000000000000000000000000000000000000000000000000000000000000008000000000000000000000008000000000000000000000000000000000000000000000000020000000000000000000800000000000800000000000010000000000000000400000000000000001000000000000000000000000000000000000000000000000000000000000000000000080000000000000000000000000000000000000002000000000000000000000000000000000000000000000000000020000000000000000000000000000000000000000000000000000000000000000000",
      "type": "0x2",
      "transactionHash": "0xb4691c7fac5dd8a619997ff8b2a46a6b75e3092b1aa94e96a46aea18e05ac4fa",
      "transactionIndex": "0x1",
      "blockHash": "0xf7a8b561e3efb428e4e79bdb0068b07488066d7455fd193cdebb9b1182f1db4c",
      "blockNumber": "0x129858e",
      "gasUsed": "0x857f",
      "effectiveGasPrice": "0x5f5e101",
      "from": "0xa3824bffc05178b1ed611117e5b900adcb189b94",
      "to": "0xad543c6af375b1001e3b08202b1eb3e6e608a42f",
      "contractAddress": null
    },
    {
      "status": "0x1",
      "cumulativeGasUsed": "0x1a7a7",
      "logs": [
        {
          "address": "0xad543c6af375b1001e3b08202b1eb3e6e608a42f",
          "topics": [
            "0xddf252ad1be2c89b69c2b068fc378daa952ba7f163c4a11628f55a4df523b3ef",
            "0x000000000000000000000000ab3da9e8fd49256957b8272f68ff5793f697bc39",
            "0x00000000000000000000000020000000000000000000000000000000000004cf"
          ],
          "data": "0x000000000000000000000000000000000000000000000000000000e8d4a51000",
          "blockHash": "0xf7a8b561e3efb428e4e79bdb0068b07488066d7455fd193cdebb9b1182f1db4c",
          "blockNumber": "0x129858e",
          "blockTimestamp": "0x67d20dfe",
          "transactionHash": "0x5833096951a277bef37966e6cb484957c0bdd24a7e85726085328d12b4ff6ce4",
          "transactionIndex": "0x2",
          "logIndex": "0x2",
          "removed": false
        },
        {
          "address": "0x3333333333333333333333333333333333333333",
          "topics": [
            "0x09f4a089fd53b0b2cd536bc6d609a82b696295ebdcb91c7e216ad11c5223f1d9",
            "0x000000000000000000000000ab3da9e8fd49256957b8272f68ff5793f697bc39",
            "0x000000000000000000000000a3824bffc05178b1ed611117e5b900adcb189b94"
          ],
          "data": "0x00000000000000000000000000000000000000000000000000000000000004cf000000000000000000000000000000000000000000000000000000e8d4a51000",
          "blockHash": "0xf7a8b561e3efb428e4e79bdb0068b07488066d7455fd193cdebb9b1182f1db4c",
          "blockNumber": "0x129858e",
          "blockTimestamp": "0x67d20dfe",
          "transactionHash": "0x5833096951a277bef37966e6cb484957c0bdd24a7e85726085328d12b4ff6ce4",
          "transactionIndex": "0x2",
          "logIndex": "0x3",
          "removed": false
        }
      ],
      "logsBloom": "0x00000000020000000000000000000000000000000000000000000000410000000000000000000000000000000000000000000000000000000000000000000408000000000000000000000009000000000000000000000000000020000000100000000000000000000000000000000000000000000800000000000010000000000000000400000000000000001000000000000000000000000000800000000000000000000000000000000000000000080000000000000000000080000000200000000002000000000000000000000000000000000000000000000040000000000000000000000000000000000000000000000000001080000000000000000000",
      "type": "0x2",
      "transactionHash": "0x5833096951a277bef37966e6cb484957c0bdd24a7e85726085328d12b4ff6ce4",
      "transactionIndex": "0x2",
      "blockHash": "0xf7a8b561e3efb428e4e79bdb0068b07488066d7455fd193cdebb9b1182f1db4c",
      "blockNumber": "0x129858e",
      "gasUsed": "0xa93f",
      "effectiveGasPrice": "0x5f5e101",
      "from": "0xa3824bffc05178b1ed611117e5b900adcb189b94",
      "to": "0xab3da9e8fd49256957b8272f68ff5793f697bc39",
      "contractAddress": null
    }
  ],
  "libraries": [],
  "pending": [],
  "returns": {},
  "timestamp": 1741819391,
  "chain": 998,
  "commit": "218ac8823"
}
