{
  "transactions": [
    {
      "hash": "0x8e641f65a081caafa6542c2d3235a9c43780abcccc4e9cd3d39bb395429c3ec3",
      "transactionType": "CALL",
      "contractName": null,
      "contractAddress": "0xad543c6af375b1001e3b08202b1eb3e6e608a42f",
      "function": "mint(address,uint256)",
      "arguments": [
        "0xACc732E49f38002aF5F29E9f042494e535207350",
        "1000000000000"
      ],
      "transaction": {
        "from": "0xa3824bffc05178b1ed611117e5b900adcb189b94",
        "to": "0xad543c6af375b1001e3b08202b1eb3e6e608a42f",
        "gas": "0x11495",
        "value": "0x0",
        "input": "0x40c10f19000000000000000000000000acc732e49f38002af5f29e9f042494e535207350000000000000000000000000000000000000000000000000000000e8d4a51000",
        "nonce": "0x4a",
        "chainId": "0x3e6"
      },
      "additionalContracts": [],
      "isFixedGasLimit": false
    },
    {
      "hash": "0x11ebb7966af8b089e8a0ae3c25a3f2f5c781e2c01ab57e0cb194e847aac4d8da",
      "transactionType": "CALL",
      "contractName": null,
      "contractAddress": "0xacc732e49f38002af5f29e9f042494e535207350",
      "function": "sendAssetToHyperCore(address,uint256)",
      "arguments": [
        "0xa3824BFfc05178b1eD611117e5b900adCb189b94",
        "1000000000000"
      ],
      "transaction": {
        "from": "0xa3824bffc05178b1ed611117e5b900adcb189b94",
        "to": "0xacc732e49f38002af5f29e9f042494e535207350",
        "gas": "0xcf7a",
        "value": "0x0",
        "input": "0xd9acf0ec000000000000000000000000a3824bffc05178b1ed611117e5b900adcb189b94000000000000000000000000000000000000000000000000000000e8d4a51000",
        "nonce": "0x4b",
        "chainId": "0x3e6"
      },
      "additionalContracts": [],
      "isFixedGasLimit": false
    }
  ],
  "receipts": [
    {
      "status": "0x1",
      "cumulativeGasUsed": "0xc83f",
      "logs": [
        {
          "address": "0xad543c6af375b1001e3b08202b1eb3e6e608a42f",
          "topics": [
            "0xddf252ad1be2c89b69c2b068fc378daa952ba7f163c4a11628f55a4df523b3ef",
            "0x0000000000000000000000000000000000000000000000000000000000000000",
            "0x000000000000000000000000acc732e49f38002af5f29e9f042494e535207350"
          ],
          "data": "0x000000000000000000000000000000000000000000000000000000e8d4a51000",
          "blockHash": "0x6d9027bce315c66982541aa8595e776938a68f668e51a72d1d6884c9ff6b71e6",
          "blockNumber": "0x12ab01e",
          "blockTimestamp": "0x67d48184",
          "transactionHash": "0x8e641f65a081caafa6542c2d3235a9c43780abcccc4e9cd3d39bb395429c3ec3",
          "transactionIndex": "0x0",
          "logIndex": "0x0",
          "removed": false
        }
      ],
      "logsBloom": "0x00000000000000000000000000000000000000000000000000002000000000000000000000000000000000000000000000000000000000000000000000000008000000000000000000000008000000000000000000000000000000000000000000000000020000000000000000000800000000000000000000000010000000000000000000000000000000001000000000000000000000000000000000000000000000000000000000000000000000080000000000000000000000000000000000000002000000000000000000000000000000000000000000000000000020002000000000000000000000020000000000000000000000000000000000000000",
      "type": "0x2",
      "transactionHash": "0x8e641f65a081caafa6542c2d3235a9c43780abcccc4e9cd3d39bb395429c3ec3",
      "transactionIndex": "0x0",
      "blockHash": "0x6d9027bce315c66982541aa8595e776938a68f668e51a72d1d6884c9ff6b71e6",
      "blockNumber": "0x12ab01e",
      "gasUsed": "0xc83f",
      "effectiveGasPrice": "0x5f5e101",
      "from": "0xa3824bffc05178b1ed611117e5b900adcb189b94",
      "to": "0xad543c6af375b1001e3b08202b1eb3e6e608a42f",
      "contractAddress": null
    },
    {
      "status": "0x1",
      "cumulativeGasUsed": "0x15e75",
      "logs": [
        {
          "address": "0xad543c6af375b1001e3b08202b1eb3e6e608a42f",
          "topics": [
            "0xddf252ad1be2c89b69c2b068fc378daa952ba7f163c4a11628f55a4df523b3ef",
            "0x000000000000000000000000acc732e49f38002af5f29e9f042494e535207350",
            "0x00000000000000000000000020000000000000000000000000000000000004cf"
          ],
          "data": "0x000000000000000000000000000000000000000000000000000000e8d4a51000",
          "blockHash": "0x6d9027bce315c66982541aa8595e776938a68f668e51a72d1d6884c9ff6b71e6",
          "blockNumber": "0x12ab01e",
          "blockTimestamp": "0x67d48184",
          "transactionHash": "0x11ebb7966af8b089e8a0ae3c25a3f2f5c781e2c01ab57e0cb194e847aac4d8da",
          "transactionIndex": "0x1",
          "logIndex": "0x1",
          "removed": false
        },
        {
          "address": "0x3333333333333333333333333333333333333333",
          "topics": [
            "0x09f4a089fd53b0b2cd536bc6d609a82b696295ebdcb91c7e216ad11c5223f1d9",
            "0x000000000000000000000000acc732e49f38002af5f29e9f042494e535207350",
            "0x000000000000000000000000a3824bffc05178b1ed611117e5b900adcb189b94"
          ],
          "data": "0x00000000000000000000000000000000000000000000000000000000000004cf000000000000000000000000000000000000000000000000000000e8d4a51000",
          "blockHash": "0x6d9027bce315c66982541aa8595e776938a68f668e51a72d1d6884c9ff6b71e6",
          "blockNumber": "0x12ab01e",
          "blockTimestamp": "0x67d48184",
          "transactionHash": "0x11ebb7966af8b089e8a0ae3c25a3f2f5c781e2c01ab57e0cb194e847aac4d8da",
          "transactionIndex": "0x1",
          "logIndex": "0x2",
          "removed": false
        }
      ],
      "logsBloom": "0x00000000020000000000000000000000000000000000000000002000400000000000000000000000000000000000000000000000000000000000000000000408000000000000000000000009000000000000000000000000000020000000100000000000000000000000000000000000000000000000000000000010000000000000000000000000000000001000000000000000000000000000800000000000000000000000000000000000000000080000000000000000000080000000200000000002000000000000000000000000000000000000000000000040000000002000000000000000000000020000000000000000001080000000000000000000",
      "type": "0x2",
      "transactionHash": "0x11ebb7966af8b089e8a0ae3c25a3f2f5c781e2c01ab57e0cb194e847aac4d8da",
      "transactionIndex": "0x1",
      "blockHash": "0x6d9027bce315c66982541aa8595e776938a68f668e51a72d1d6884c9ff6b71e6",
      "blockNumber": "0x12ab01e",
      "gasUsed": "0x9636",
      "effectiveGasPrice": "0x5f5e101",
      "from": "0xa3824bffc05178b1ed611117e5b900adcb189b94",
      "to": "0xacc732e49f38002af5f29e9f042494e535207350",
      "contractAddress": null
    }
  ],
  "libraries": [],
  "pending": [],
  "returns": {},
  "timestamp": 1741980037,
  "chain": 998,
  "commit": "218ac8823"
}
