{
  "transactions": [
    {
      "hash": "0xbadc89903e27f988c841e7c75b68f0fa49668c94154453109423e697ca5b5365",
      "transactionType": "CALL",
      "contractName": null,
      "contractAddress": "0xad543c6af375b1001e3b08202b1eb3e6e608a42f",
      "function": "mint(address,uint256)",
      "arguments": ["0xACc732E49f38002aF5F29E9f042494e535207350", "1000000"],
      "transaction": {
        "from": "0xa3824bffc05178b1ed611117e5b900adcb189b94",
        "to": "0xad543c6af375b1001e3b08202b1eb3e6e608a42f",
        "gas": "0x124ca",
        "value": "0x0",
        "input": "0x40c10f19000000000000000000000000acc732e49f38002af5f29e9f042494e53520735000000000000000000000000000000000000000000000000000000000000f4240",
        "nonce": "0x44",
        "chainId": "0x3e6"
      },
      "additionalContracts": [],
      "isFixedGasLimit": false
    },
    {
      "hash": "0x7497c9b663bddebcaba24b49e6ecca94595bd9881adb0e371eb903d9cbd38347",
      "transactionType": "CALL",
      "contractName": null,
      "contractAddress": "0xacc732e49f38002af5f29e9f042494e535207350",
      "function": "sendAssetToHyperCore(address,uint256)",
      "arguments": ["0xa3824BFfc05178b1eD611117e5b900adCb189b94", "1000000"],
      "transaction": {
        "from": "0xa3824bffc05178b1ed611117e5b900adcb189b94",
        "to": "0xacc732e49f38002af5f29e9f042494e535207350",
        "gas": "0xdb9d",
        "value": "0x0",
        "input": "0xd9acf0ec000000000000000000000000a3824bffc05178b1ed611117e5b900adcb189b9400000000000000000000000000000000000000000000000000000000000f4240",
        "nonce": "0x45",
        "chainId": "0x3e6"
      },
      "additionalContracts": [],
      "isFixedGasLimit": false
    }
  ],
  "receipts": [
    {
      "status": "0x1",
      "cumulativeGasUsed": "0xc833",
      "logs": [
        {
          "address": "0xad543c6af375b1001e3b08202b1eb3e6e608a42f",
          "topics": [
            "0xddf252ad1be2c89b69c2b068fc378daa952ba7f163c4a11628f55a4df523b3ef",
            "0x0000000000000000000000000000000000000000000000000000000000000000",
            "0x000000000000000000000000acc732e49f38002af5f29e9f042494e535207350"
          ],
          "data": "0x00000000000000000000000000000000000000000000000000000000000f4240",
          "blockHash": "0x94d34b7b6d825c050fedcbe70a0445c416accd9bd91a2a140a85604f8b439b82",
          "blockNumber": "0x12aafc0",
          "blockTimestamp": "0x67d480cc",
          "transactionHash": "0xbadc89903e27f988c841e7c75b68f0fa49668c94154453109423e697ca5b5365",
          "transactionIndex": "0x0",
          "logIndex": "0x0",
          "removed": false
        }
      ],
      "logsBloom": "0x00000000000000000000000000000000000000000000000000002000000000000000000000000000000000000000000000000000000000000000000000000008000000000000000000000008000000000000000000000000000000000000000000000000020000000000000000000800000000000000000000000010000000000000000000000000000000001000000000000000000000000000000000000000000000000000000000000000000000080000000000000000000000000000000000000002000000000000000000000000000000000000000000000000000020002000000000000000000000020000000000000000000000000000000000000000",
      "type": "0x2",
      "transactionHash": "0xbadc89903e27f988c841e7c75b68f0fa49668c94154453109423e697ca5b5365",
      "transactionIndex": "0x0",
      "blockHash": "0x94d34b7b6d825c050fedcbe70a0445c416accd9bd91a2a140a85604f8b439b82",
      "blockNumber": "0x12aafc0",
      "gasUsed": "0xc833",
      "effectiveGasPrice": "0x5f5e101",
      "from": "0xa3824bffc05178b1ed611117e5b900adcb189b94",
      "to": "0xad543c6af375b1001e3b08202b1eb3e6e608a42f",
      "contractAddress": null
    },
    {
      "status": "0x1",
      "cumulativeGasUsed": "0x962a",
      "logs": [
        {
          "address": "0xad543c6af375b1001e3b08202b1eb3e6e608a42f",
          "topics": [
            "0xddf252ad1be2c89b69c2b068fc378daa952ba7f163c4a11628f55a4df523b3ef",
            "0x000000000000000000000000acc732e49f38002af5f29e9f042494e535207350",
            "0x00000000000000000000000020000000000000000000000000000000000004cf"
          ],
          "data": "0x00000000000000000000000000000000000000000000000000000000000f4240",
          "blockHash": "0x354b8ba9d65ad87533343db6035185b3a4a4fa3667b8634f7d8f433a8eaca83a",
          "blockNumber": "0x12aafc1",
          "blockTimestamp": "0x67d480ce",
          "transactionHash": "0x7497c9b663bddebcaba24b49e6ecca94595bd9881adb0e371eb903d9cbd38347",
          "transactionIndex": "0x0",
          "logIndex": "0x0",
          "removed": false
        },
        {
          "address": "0x3333333333333333333333333333333333333333",
          "topics": [
            "0x09f4a089fd53b0b2cd536bc6d609a82b696295ebdcb91c7e216ad11c5223f1d9",
            "0x000000000000000000000000acc732e49f38002af5f29e9f042494e535207350",
            "0x000000000000000000000000a3824bffc05178b1ed611117e5b900adcb189b94"
          ],
          "data": "0x00000000000000000000000000000000000000000000000000000000000004cf00000000000000000000000000000000000000000000000000000000000f4240",
          "blockHash": "0x354b8ba9d65ad87533343db6035185b3a4a4fa3667b8634f7d8f433a8eaca83a",
          "blockNumber": "0x12aafc1",
          "blockTimestamp": "0x67d480ce",
          "transactionHash": "0x7497c9b663bddebcaba24b49e6ecca94595bd9881adb0e371eb903d9cbd38347",
          "transactionIndex": "0x0",
          "logIndex": "0x1",
          "removed": false
        }
      ],
      "logsBloom": "0x00000000020000000000000000000000000000000000000000002000400000000000000000000000000000000000000000000000000000000000000000000408000000000000000000000009000000000000000000000000000020000000100000000000000000000000000000000000000000000000000000000010000000000000000000000000000000001000000000000000000000000000800000000000000000000000000000000000000000080000000000000000000080000000200000000002000000000000000000000000000000000000000000000040000000002000000000000000000000020000000000000000001080000000000000000000",
      "type": "0x2",
      "transactionHash": "0x7497c9b663bddebcaba24b49e6ecca94595bd9881adb0e371eb903d9cbd38347",
      "transactionIndex": "0x0",
      "blockHash": "0x354b8ba9d65ad87533343db6035185b3a4a4fa3667b8634f7d8f433a8eaca83a",
      "blockNumber": "0x12aafc1",
      "gasUsed": "0x962a",
      "effectiveGasPrice": "0x5f5e101",
      "from": "0xa3824bffc05178b1ed611117e5b900adcb189b94",
      "to": "0xacc732e49f38002af5f29e9f042494e535207350",
      "contractAddress": null
    }
  ],
  "libraries": [],
  "pending": [],
  "returns": {},
  "timestamp": 1741979854,
  "chain": 998,
  "commit": "218ac8823"
}
