{
  "transactions": [
    {
      "hash": "0x9cf6800497d573e4d03910356b6573290a210e576617bfc715ceeb67fc81430c",
      "transactionType": "CALL",
      "contractName": null,
      "contractAddress": "0xad543c6af375b1001e3b08202b1eb3e6e608a42f",
      "function": "mint(address,uint256)",
      "arguments": [
        "0xf9d3B9BacD91Df6F273979C42C70E262Ed532918",
        "1000000000000000000"
      ],
      "transaction": {
        "from": "0xa3824bffc05178b1ed611117e5b900adcb189b94",
        "to": "0xad543c6af375b1001e3b08202b1eb3e6e608a42f",
        "gas": "0x12510",
        "value": "0x0",
        "input": "0x40c10f19000000000000000000000000f9d3b9bacd91df6f273979c42c70e262ed5329180000000000000000000000000000000000000000000000000de0b6b3a7640000",
        "nonce": "0x8a",
        "chainId": "0x3e6"
      },
      "additionalContracts": [],
      "isFixedGasLimit": false
    },
    {
      "hash": "0xd1c31a970a1923837a605487391efc9e6cb98bf38e4e0076873263df7b57c0a9",
      "transactionType": "CALL",
      "contractName": null,
      "contractAddress": "0xf9d3b9bacd91df6f273979c42c70e262ed532918",
      "function": "sendAssetToHyperCore(address,uint256)",
      "arguments": [
        "0xa3824BFfc05178b1eD611117e5b900adCb189b94",
        "1000000000000000000"
      ],
      "transaction": {
        "from": "0xa3824bffc05178b1ed611117e5b900adcb189b94",
        "to": "0xf9d3b9bacd91df6f273979c42c70e262ed532918",
        "gas": "0xd1ec",
        "value": "0x0",
        "input": "0xd9acf0ec000000000000000000000000a3824bffc05178b1ed611117e5b900adcb189b940000000000000000000000000000000000000000000000000de0b6b3a7640000",
        "nonce": "0x8b",
        "chainId": "0x3e6"
      },
      "additionalContracts": [],
      "isFixedGasLimit": false
    }
  ],
  "receipts": [
    {
      "status": "0x1",
      "cumulativeGasUsed": "0xc863",
      "logs": [
        {
          "address": "0xad543c6af375b1001e3b08202b1eb3e6e608a42f",
          "topics": [
            "0xddf252ad1be2c89b69c2b068fc378daa952ba7f163c4a11628f55a4df523b3ef",
            "0x0000000000000000000000000000000000000000000000000000000000000000",
            "0x000000000000000000000000f9d3b9bacd91df6f273979c42c70e262ed532918"
          ],
          "data": "0x0000000000000000000000000000000000000000000000000de0b6b3a7640000",
          "blockHash": "0xe027d70ef0c5849c1f5f0b379bc36023fbb8f0c9a8a0bd282731accc9a745f30",
          "blockNumber": "0x12cccf5",
          "blockTimestamp": "0x67d8a326",
          "transactionHash": "0x9cf6800497d573e4d03910356b6573290a210e576617bfc715ceeb67fc81430c",
          "transactionIndex": "0x0",
          "logIndex": "0x0",
          "removed": false
        }
      ],
      "logsBloom": "0x00000000000000000000000000000000000000000000000000000000000000000000000000000000000000000000000000000000000000000000000000000008000000000000000000000008000000000000000000000000000000000000000000000000020000000000000000000800000000000000000000000010000000000000000000000000000000001000000000000000000000000000000000000004000000000000000000000000000000080000000000000000000000000000000000000002000000000004000000000000000000000000000000000000000020000000000000000000000000000000000000000000004000000000000000000000",
      "type": "0x2",
      "transactionHash": "0x9cf6800497d573e4d03910356b6573290a210e576617bfc715ceeb67fc81430c",
      "transactionIndex": "0x0",
      "blockHash": "0xe027d70ef0c5849c1f5f0b379bc36023fbb8f0c9a8a0bd282731accc9a745f30",
      "blockNumber": "0x12cccf5",
      "gasUsed": "0xc863",
      "effectiveGasPrice": "0x5f5e101",
      "from": "0xa3824bffc05178b1ed611117e5b900adcb189b94",
      "to": "0xad543c6af375b1001e3b08202b1eb3e6e608a42f",
      "contractAddress": null
    },
    {
      "status": "0x1",
      "cumulativeGasUsed": "0x1605f",
      "logs": [
        {
          "address": "0xad543c6af375b1001e3b08202b1eb3e6e608a42f",
          "topics": [
            "0xddf252ad1be2c89b69c2b068fc378daa952ba7f163c4a11628f55a4df523b3ef",
            "0x000000000000000000000000f9d3b9bacd91df6f273979c42c70e262ed532918",
            "0x00000000000000000000000020000000000000000000000000000000000004cf"
          ],
          "data": "0x0000000000000000000000000000000000000000000000000de0b6b3a7640000",
          "blockHash": "0xe027d70ef0c5849c1f5f0b379bc36023fbb8f0c9a8a0bd282731accc9a745f30",
          "blockNumber": "0x12cccf5",
          "blockTimestamp": "0x67d8a326",
          "transactionHash": "0xd1c31a970a1923837a605487391efc9e6cb98bf38e4e0076873263df7b57c0a9",
          "transactionIndex": "0x1",
          "logIndex": "0x1",
          "removed": false
        },
        {
          "address": "0x3333333333333333333333333333333333333333",
          "topics": [
            "0x09f4a089fd53b0b2cd536bc6d609a82b696295ebdcb91c7e216ad11c5223f1d9",
            "0x000000000000000000000000f9d3b9bacd91df6f273979c42c70e262ed532918",
            "0x000000000000000000000000a3824bffc05178b1ed611117e5b900adcb189b94"
          ],
          "data": "0x00000000000000000000000000000000000000000000000000000000000004cf00000000000000000000000000000000000000000000000000000000000f4240",
          "blockHash": "0xe027d70ef0c5849c1f5f0b379bc36023fbb8f0c9a8a0bd282731accc9a745f30",
          "blockNumber": "0x12cccf5",
          "blockTimestamp": "0x67d8a326",
          "transactionHash": "0xd1c31a970a1923837a605487391efc9e6cb98bf38e4e0076873263df7b57c0a9",
          "transactionIndex": "0x1",
          "logIndex": "0x2",
          "removed": false
        }
      ],
      "logsBloom": "0x00000000020000000000000000000000000000000000000000000000400000000000000000000000000000000000000000000000000000000000000000000408000000000000000000000009000000000000000000000000000020000000100000000000000000000000000000000000000000000000000000000010000000000000000000000000000000001000000000000000000000000000800000000004000000000000000000000000000000080000000000000000000080000000200000000002000000000004000000000000000000000000000000000040000000000000000000000000000000000000000000000000005080000000000000000000",
      "type": "0x2",
      "transactionHash": "0xd1c31a970a1923837a605487391efc9e6cb98bf38e4e0076873263df7b57c0a9",
      "transactionIndex": "0x1",
      "blockHash": "0xe027d70ef0c5849c1f5f0b379bc36023fbb8f0c9a8a0bd282731accc9a745f30",
      "blockNumber": "0x12cccf5",
      "gasUsed": "0x97fc",
      "effectiveGasPrice": "0x5f5e101",
      "from": "0xa3824bffc05178b1ed611117e5b900adcb189b94",
      "to": "0xf9d3b9bacd91df6f273979c42c70e262ed532918",
      "contractAddress": null
    }
  ],
  "libraries": [],
  "pending": [],
  "returns": {},
  "timestamp": 1742250791,
  "chain": 998,
  "commit": "218ac8823"
}
