{
  "transactions": [
    {
      "hash": "0x889d01f8e7c4fa18f80c65fd46164f63fdba70df33d9b2df20657388ccf3ae15",
      "transactionType": "CALL",
      "contractName": null,
      "contractAddress": "0xad543c6af375b1001e3b08202b1eb3e6e608a42f",
      "function": "mint(address,uint256)",
      "arguments": [
        "0x147B66268C61129f8f9D7EC5c0dD9FecCA6FE4A9",
        "1000000000000000000"
      ],
      "transaction": {
        "from": "0xa3824bffc05178b1ed611117e5b900adcb189b94",
        "to": "0xad543c6af375b1001e3b08202b1eb3e6e608a42f",
        "gas": "0xb884",
        "value": "0x0",
        "input": "0x40c10f19000000000000000000000000147b66268c61129f8f9d7ec5c0dd9fecca6fe4a90000000000000000000000000000000000000000000000000de0b6b3a7640000",
        "nonce": "0x82",
        "chainId": "0x3e6"
      },
      "additionalContracts": [],
      "isFixedGasLimit": false
    },
    {
      "hash": "0xb391be1a372b4fd2f407369631f0b007ed163d14247686a3e37b03e7f70f9432",
      "transactionType": "CALL",
      "contractName": null,
      "contractAddress": "0x3333333333333333333333333333333333333333",
      "function": "sendSpot(address,uint64,uint64)",
      "arguments": [
        "0x147B66268C61129f8f9D7EC5c0dD9FecCA6FE4A9",
        "1231",
        "1000000"
      ],
      "transaction": {
        "from": "0xa3824bffc05178b1ed611117e5b900adcb189b94",
        "to": "0x3333333333333333333333333333333333333333",
        "gas": "0x8afe",
        "value": "0x0",
        "input": "0x0b0ac0ab000000000000000000000000147b66268c61129f8f9d7ec5c0dd9fecca6fe4a900000000000000000000000000000000000000000000000000000000000004cf00000000000000000000000000000000000000000000000000000000000f4240",
        "nonce": "0x83",
        "chainId": "0x3e6"
      },
      "additionalContracts": [],
      "isFixedGasLimit": false
    }
  ],
  "receipts": [
    {
      "status": "0x1",
      "cumulativeGasUsed": "0x8597",
      "logs": [
        {
          "address": "0xad543c6af375b1001e3b08202b1eb3e6e608a42f",
          "topics": [
            "0xddf252ad1be2c89b69c2b068fc378daa952ba7f163c4a11628f55a4df523b3ef",
            "0x0000000000000000000000000000000000000000000000000000000000000000",
            "0x000000000000000000000000147b66268c61129f8f9d7ec5c0dd9fecca6fe4a9"
          ],
          "data": "0x0000000000000000000000000000000000000000000000000de0b6b3a7640000",
          "blockHash": "0x6d6b10ff332b552314dc89b4d1b32226d3ba7b51afc6a706462da32ac78298f6",
          "blockNumber": "0x12cc5d3",
          "blockTimestamp": "0x67d89540",
          "transactionHash": "0x889d01f8e7c4fa18f80c65fd46164f63fdba70df33d9b2df20657388ccf3ae15",
          "transactionIndex": "0x0",
          "logIndex": "0x0",
          "removed": false
        }
      ],
      "logsBloom": "0x00000000000000000000000000000000000000000000000000000000000000000000000000000000000000000000000000000000000000000000000000000008000000000000000000000008000000000000000000000000000000000000000000000000020000000000000000000800000000000000000000000010000000000000000000000000000000001000000000000000000000000000000000000000000000000000000000000000000000080100000000000000000000000000000000000002000000000000000000000000000000000000020000000000000020000000000000000000001000000000000000000000000000000000000000000000",
      "type": "0x2",
      "transactionHash": "0x889d01f8e7c4fa18f80c65fd46164f63fdba70df33d9b2df20657388ccf3ae15",
      "transactionIndex": "0x0",
      "blockHash": "0x6d6b10ff332b552314dc89b4d1b32226d3ba7b51afc6a706462da32ac78298f6",
      "blockNumber": "0x12cc5d3",
      "gasUsed": "0x8597",
      "effectiveGasPrice": "0x5f5e101",
      "from": "0xa3824bffc05178b1ed611117e5b900adcb189b94",
      "to": "0xad543c6af375b1001e3b08202b1eb3e6e608a42f",
      "contractAddress": null
    },
    {
      "status": "0x1",
      "cumulativeGasUsed": "0xe4a1",
      "logs": [
        {
          "address": "0x3333333333333333333333333333333333333333",
          "topics": [
            "0x09f4a089fd53b0b2cd536bc6d609a82b696295ebdcb91c7e216ad11c5223f1d9",
            "0x000000000000000000000000a3824bffc05178b1ed611117e5b900adcb189b94",
            "0x000000000000000000000000147b66268c61129f8f9d7ec5c0dd9fecca6fe4a9"
          ],
          "data": "0x00000000000000000000000000000000000000000000000000000000000004cf00000000000000000000000000000000000000000000000000000000000f4240",
          "blockHash": "0x6d6b10ff332b552314dc89b4d1b32226d3ba7b51afc6a706462da32ac78298f6",
          "blockNumber": "0x12cc5d3",
          "blockTimestamp": "0x67d89540",
          "transactionHash": "0xb391be1a372b4fd2f407369631f0b007ed163d14247686a3e37b03e7f70f9432",
          "transactionIndex": "0x1",
          "logIndex": "0x1",
          "removed": false
        }
      ],
      "logsBloom": "0x00000000020000000000000000000000000000000000000000000000400000000000000000000000000000000000000000000000000000000000000000000400000000000000000000000000000000000000000000000000000020000000100000000000000000000000000000000000000000000000000000000000000000000000000000000000000000000000000000000000000000000000800000000000000000000000000000000000000000000100000000000000000080000000000000000000000000000000000000000000000000000000020000000040000000000000000000000000001000000000000000000000000080000000000000000000",
      "type": "0x2",
      "transactionHash": "0xb391be1a372b4fd2f407369631f0b007ed163d14247686a3e37b03e7f70f9432",
      "transactionIndex": "0x1",
      "blockHash": "0x6d6b10ff332b552314dc89b4d1b32226d3ba7b51afc6a706462da32ac78298f6",
      "blockNumber": "0x12cc5d3",
      "gasUsed": "0x5f0a",
      "effectiveGasPrice": "0x5f5e101",
      "from": "0xa3824bffc05178b1ed611117e5b900adcb189b94",
      "to": "0x3333333333333333333333333333333333333333",
      "contractAddress": null
    }
  ],
  "libraries": [],
  "pending": [],
  "returns": {},
  "timestamp": 1742247230,
  "chain": 998,
  "commit": "218ac8823"
}
