{
  "transactions": [
    {
      "hash": "0xc4958495dbb966151240a38d28f3ab9ba98cc04f4d9fb89911e4850b5cb8a41a",
      "transactionType": "CALL",
      "contractName": null,
      "contractAddress": "0x6edce65403992e310a62460808c4b910d972f10f",
      "function": "setConfig(address,address,(uint32,uint32,bytes)[])",
      "arguments": [
        "0xC51c580Eeb3844b4117C9B3f5e9Cc43f5B808A85",
        "0xdAf00F5eE2158dD58E0d3857851c432E34A3A851",
        "[(40231, 2, 0x0000000000000000000000000000000000000000000000000000000000000020000000000000000000000000000000000000000000000000000000000000003b00000000000000000000000000000000000000000000000000000000000000000000000000000000000000000000000000000000000000000000000000000000000000000000000000000000000000000000000000000000000000000000000000000000000000000000000000000000000000000000000000000000000000c000000000000000000000000000000000000000000000000000000000000000e000000000000000000000000000000000000000000000000000000000000000000000000000000000000000000000000000000000000000000000000000000000)]"
      ],
      "transaction": {
        "from": "0x565786abe5ba0f9d307adfa681379f0788bedef7",
        "to": "0x6edce65403992e310a62460808c4b910d972f10f",
        "gas": "0x140ab",
        "value": "0x0",
        "input": "0x6dbd9f90000000000000000000000000c51c580eeb3844b4117c9b3f5e9cc43f5b808a85000000000000000000000000daf00f5ee2158dd58e0d3857851c432e34a3a8510000000000000000000000000000000000000000000000000000000000000060000000000000000000000000000000000000000000000000000000000000000100000000000000000000000000000000000000000000000000000000000000200000000000000000000000000000000000000000000000000000000000009d270000000000000000000000000000000000000000000000000000000000000002000000000000000000000000000000000000000000000000000000000000006000000000000000000000000000000000000000000000000000000000000001200000000000000000000000000000000000000000000000000000000000000020000000000000000000000000000000000000000000000000000000000000003b00000000000000000000000000000000000000000000000000000000000000000000000000000000000000000000000000000000000000000000000000000000000000000000000000000000000000000000000000000000000000000000000000000000000000000000000000000000000000000000000000000000000000c000000000000000000000000000000000000000000000000000000000000000e000000000000000000000000000000000000000000000000000000000000000000000000000000000000000000000000000000000000000000000000000000000",
        "nonce": "0x180",
        "chainId": "0xaa36a7"
      },
      "additionalContracts": [],
      "isFixedGasLimit": false
    }
  ],
  "receipts": [
    {
      "status": "0x1",
      "cumulativeGasUsed": "0xcef09e",
      "logs": [
        {
          "address": "0xdaf00f5ee2158dd58e0d3857851c432e34a3a851",
          "topics": [
            "0x82118522aa536ac0e96cc5c689407ae42b89d592aa133890a01f1509842f5081"
          ],
          "data": "0x000000000000000000000000c51c580eeb3844b4117c9b3f5e9cc43f5b808a850000000000000000000000000000000000000000000000000000000000009d270000000000000000000000000000000000000000000000000000000000000060000000000000000000000000000000000000000000000000000000000000003b00000000000000000000000000000000000000000000000000000000000000000000000000000000000000000000000000000000000000000000000000000000000000000000000000000000000000000000000000000000000000000000000000000000000000000000000000000000000000000000000000000000000000c000000000000000000000000000000000000000000000000000000000000000e000000000000000000000000000000000000000000000000000000000000000000000000000000000000000000000000000000000000000000000000000000000",
          "blockHash": "0xfea088581645527de32ddc470743fc5ab6d908f336823774828af15f01c10da4",
          "blockNumber": "0x63a9c8",
          "transactionHash": "0xc4958495dbb966151240a38d28f3ab9ba98cc04f4d9fb89911e4850b5cb8a41a",
          "transactionIndex": "0x5e",
          "logIndex": "0xab",
          "removed": false
        }
      ],
      "logsBloom": "0x00000000000000000000000000000000000000000000000000000000000000000000000000800000000000000000000000000000000000000000000000000000000000000000000000000000000000000000000000000000002000000000000000000000000000000000000000000000000000000000000000000000000000000000000000000000000000000000000000000000000000000000000000000000000000000000000000000002000000000000000000000000000000000000000000000000000000000000000000000000000000000000000000000000000000000000000000001000000000000000000000000000000000100000000000000010",
      "type": "0x2",
      "transactionHash": "0xc4958495dbb966151240a38d28f3ab9ba98cc04f4d9fb89911e4850b5cb8a41a",
      "transactionIndex": "0x5e",
      "blockHash": "0xfea088581645527de32ddc470743fc5ab6d908f336823774828af15f01c10da4",
      "blockNumber": "0x63a9c8",
      "gasUsed": "0xdb43",
      "effectiveGasPrice": "0x8aa91ec6",
      "from": "0x565786abe5ba0f9d307adfa681379f0788bedef7",
      "to": "0x6edce65403992e310a62460808c4b910d972f10f",
      "contractAddress": null
    }
  ],
  "libraries": [],
  "pending": [],
  "returns": {},
  "timestamp": 1724085555,
  "chain": 11155111,
  "commit": "fa309cf4"
}
